:100000000C94CA000C94D5030C9406040C94370489
:100010000C9468040C9499040C94CA040C94FB048A
:100020000C942C050C94F4000C94F4000C94F40043
:100030000C94880A0C94F4000C94F4000C944E096F
:100040000C94F4000C94F4000C94F4000C94F40060
:100050000C94F4000C94F4000C94F4000C94290912
:100060000C94F4000C94D4150C94F4000C94F4004B
:100070000C94F4000C94F4000C94F4000C94F40030
:100080000C94F4000C94F4000C94F4000C94F40020
:100090000C9415160C94F4000C94F4000C94591460
:1000A0000C94F4000C94F4000C94F4000C94F40000
:1000B0000C94F4000C94F4000C94F4000C94F400F0
:1000C0000C94F4000C94F4000C94F4000021242708
:1000D0002A2D3033002225282B2E313400202326D0
:1000E000292C2F3205050505030303030101010433
:1000F00004030606060606060606010405010501B8
:1001000003020202020202010202050504040304C2
:1001100004010304070707010208101020408004AF
:1001200008102040020204081020408001028020B4
:100130004004200101020408102001408040800199
:1001400002080408800410040201000008090000ED
:10015000000000000000000000000000000000009F
:10016000000000000000000000000000000000008F
:100170000000000000000000000000000000740B00
:100180008D0CD70D9C11B512EE125713F617FB17F5
:1001900006180D1811241FBECFEFD1E2DEBFCDBF70
:1001A00014E0A0E0B2E0EAE2FBE300E00BBF02C033
:1001B00007900D92AC3AB107D9F71EE0ACEAB4E073
:1001C00001C01D92A437B107E1F711E0C4E9D1E005
:1001D00004C02297FE010E94A91ACE37D107C9F7A1
:1001E0000E9437030C94931D0C9400000F931F93EF
:1001F00005E215E0C80160E072E00E940C128EED8D
:1002000094E00E94220FAB01BC01C8010E9495122C
:10021000C8016FE072E00E9499121F910F9108953A
:100220000F931F9305E215E0C80162E172E00E949E
:100230000C128CED94E00E948E0C482F50E060E090
:1002400070E0C8012AE030E00E94E311C80163E2D7
:1002500072E00E9499121F910F910895EF92FF9200
:100260000F931F93DF93CF93CDB7DEB76F970FB682
:10027000F894DEBF0FBECDBF8EED94E00E94491111
:10028000BC017E010894E11CF11CC7014FE150E064
:100290000E94AD1A05E215E0C80166E272E00E9414
:1002A0000C12C801B7010E9499126F960FB6F8940C
:1002B000DEBF0FBECDBFCF91DF911F910F91FF9099
:1002C000EF900895CF92DF92EF92FF920F931F93DA
:1002D0007C0185E2C82E85E0D82EC60165E372E078
:1002E0000E940C120027F7FC0095102FC601B801E0
:1002F000A7012AE030E00E9401121F910F91FF90A8
:10030000EF90DF90CF900895CF92DF92EF92FF921F
:100310000F931F93DF93CF93CDB7DEB764970FB6DC
:10032000F894DEBF0FBECDBF8C0185E295E06DE392
:1003300072E00E94991285E295E0B8010E9499123C
:1003400085E295E06FE672E00E940C124091B004E5
:100350005091B1046091B2047091B30485E295E0CC
:1003600022E030E00E94011285E295E068E772E049
:100370000E940C124091AC045091AD046091AE0407
:100380007091AF0485E295E022E030E00E94011216
:1003900085E295E061E872E00E940C124091B4049D
:1003A00050E060E070E085E295E02AE030E00E94F5
:1003B000011285E295E06DE872E00E940C120CE0FB
:1003C00010E07E010894E11CF11C99E9C92E92E02D
:1003D000D92EF801EB54FB4F808100D000D000D023
:1003E000EDB7FEB73196ADB7BEB71296FC92EE925E
:1003F0001197D382C282848315820E94BC1A8DB762
:100400009EB706960FB6F8949EBF0FBE8DBF85E2CD
:1004100095E0B7010E940C12015010409FEF0F3F72
:100420001907B9F685E295E06DE972E00E9499122C
:1004300085E295E06DE372E00E94991264960FB632
:10044000F894DEBF0FBECDBFCF91DF911F910F910A
:10045000FF90EF90DF90CF90089585E295E00E94A5
:10046000AC1260ED77E080E090E00E94730985E2D5
:1004700095E06DE972E00E94991285E295E06DE9E0
:1004800072E00E94991285E295E06DE972E00E94A7
:1004900099120E942E010E9410010E94F60085E22E
:1004A00095E06DE972E00E94991285E295E06DE9B0
:1004B00072E00E94991285E295E06DE972E00E9477
:1004C00099128091C4049091C50401969093C5043B
:1004D0008093C4040E9462018EE992E00E9484012C
:1004E00085E295E06EEA72E00E94991287ED94E051
:1004F0006FEC0E94220C8091D9048CED94E069E0AD
:100500004FE10E94800D87ED94E00E94080C60E2AC
:1005100070E080E090E00E945D0585E295E00E9439
:10052000AC1285E295E06DE972E00E94991285E2D5
:1005300095E06DE972E00E9499128CEB92E00E94C6
:1005400084018091AC049091AD04A091AE04B0916F
:10055000AF0485FF09C08091BA0481508093BA042A
:1005600086EC92E00E9484018091AC049091AD04ED
:10057000A091AE04B091AF0482FF09C08091B7048E
:1005800081508093B70484ED92E00E9484018091B1
:10059000AC049091AD04A091AE04B091AF048B7DFA
:1005A0008093AC049093AD04A093AE04B093AF04D9
:1005B00082EE92E00E9484010895EF92FF920F93E1
:1005C0001F9305E215E0C8010E94AC12C8016AEF52
:1005D00072E00E949912C80162E073E00E949912D1
:1005E0003EEDE32E34E0F32EC7010E949911C701BE
:1005F0006BE073E00E94B90F27EDE22E24E0F22EAB
:10060000C7010E94810C60ED77E080E090E00E94DD
:100610007309C7016FEC0E94220C8091D904C801B4
:1006200060E273E00E940C12C80144E050E060E018
:1006300070E022E030E00E940112C80169E273E03C
:100640000E940C12C80140E150E060E070E022E03E
:1006500030E00E94011282E393E00E948401C8010D
:100660000E94A7121F910F91FF90EF9008950E9492
:10067000BB090E94DD020E942D02FDCF883008F0E8
:1006800069C0E82FF0E0EE0FFF1FEA53FB4F7183C4
:100690006083833089F1843028F48130A1F0823086
:1006A000F0F409C08630E9F1873009F447C084309E
:1006B00009F050C02EC0809169008C7F842B8093FC
:1006C0006900E89A089580916900440F551F440F0E
:1006D000551F837F842B80936900E99A0895809148
:1006E000690064E0440F551F6A95E1F78F7C842B05
:1006F00080936900EA9A08958091690036E0440F7A
:10070000551F3A95E1F78F73842B80936900EB9A1C
:10071000089580916A008C7F842B80936A00EC9A04
:10072000089580916A0024E0440F551F2A95E1F74F
:100730008F7C842B80936A00EE9A089580916A00E2
:1007400096E0440F551F9A95E1F78F73842B8093A1
:100750006A00EF9A0895F894883028F58330A1F064
:10076000843028F4813061F0823060F407C0863034
:1007700079F0873079F0843071F408C0E8980BC0C4
:10078000E99809C0EA9807C0EB9805C0EC9803C047
:10079000EE9801C0EF98E82FF0E0EE0FFF1FEA534C
:1007A000FB4F11821082789408951F920F920FB61A
:1007B0000F920BB60F9211242F933F934F935F9399
:1007C0006F937F938F939F93AF93BF93EF93FF9319
:1007D0008091C6049091C704892B29F0E091C6044A
:1007E000F091C7040995FF91EF91BF91AF919F914F
:1007F0008F917F916F915F914F913F912F910F90CA
:100800000BBE0F900FBE0F901F9018951F920F9266
:100810000FB60F920BB60F9211242F933F934F9365
:100820005F936F937F938F939F93AF93BF93EF9358
:10083000FF938091C8049091C904892B29F0E0911D
:10084000C804F091C9040995FF91EF91BF91AF9150
:100850009F918F917F916F915F914F913F912F91D8
:100860000F900BBE0F900FBE0F901F9018951F9208
:100870000F920FB60F920BB60F9211242F933F9346
:100880004F935F936F937F938F939F93AF93BF9398
:10089000EF93FF938091CA049091CB04892B29F0A8
:1008A000E091CA04F091CB040995FF91EF91BF91BB
:1008B000AF919F918F917F916F915F914F913F91F8
:1008C0002F910F900BBE0F900FBE0F901F90189599
:1008D0001F920F920FB60F920BB60F9211242F9307
:1008E0003F934F935F936F937F938F939F93AF93B8
:1008F000BF93EF93FF938091CC049091CD04892B0B
:1009000029F0E091CC04F091CD040995FF91EF918D
:10091000BF91AF919F918F917F916F915F914F9117
:100920003F912F910F900BBE0F900FBE0F901F9015
:1009300018951F920F920FB60F920BB60F921124BB
:100940002F933F934F935F936F937F938F939F93D7
:10095000AF93BF93EF93FF938091CE049091CF0418
:10096000892B29F0E091CE04F091CF040995FF91F5
:10097000EF91BF91AF919F918F917F916F915F9117
:100980004F913F912F910F900BBE0F900FBE0F9084
:100990001F9018951F920F920FB60F920BB60F92E1
:1009A00011242F933F934F935F936F937F938F9374
:1009B0009F93AF93BF93EF93FF938091D004909157
:1009C000D104892B29F0E091D004F091D10409954C
:1009D000FF91EF91BF91AF919F918F917F916F9117
:1009E0005F914F913F912F910F900BBE0F900FBED3
:1009F0000F901F9018951F920F920FB60F920BB683
:100A00000F9211242F933F934F935F936F937F9394
:100A10008F939F93AF93BF93EF93FF938091D204F3
:100A20009091D304892B29F0E091D204F091D30462
:100A30000995FF91EF91BF91AF919F918F917F9118
:100A40006F915F914F913F912F910F900BBE0F903F
:100A50000FBE0F901F9018951F920F920FB60F9216
:100A60000BB60F9211242F933F934F935F936F9385
:100A70007F938F939F93AF93BF93EF93FF93809157
:100A8000D4049091D504892B29F0E091D404F091FD
:100A9000D5040995FF91EF91BF91AF919F918F91EF
:100AA0007F916F915F914F913F912F910F900BBE6E
:100AB0000F900FBE0F901F901895EF92FF920F931B
:100AC0001F937B018C01F894CB0181709070892B6E
:100AD00019F082E00E94AB03E1FE03C083E00E94B4
:100AE000AB03E2FE03C082E00E94AB03E3FE03C05F
:100AF00083E00E94AB03E4FE03C082E00E94AB03EC
:100B0000F3FE03C082E00E94AB03E5FE03C084E075
:100B10000E94AB03F4FE03C082E00E94AB03F5FE2B
:100B200003C082E00E94AB03F6FE03C083E00E9494
:100B3000AB0300FF03C083E00E94AB038091B004CD
:100B40009091B104A091B204B091B304E094F094F8
:100B5000009510958E219F21A023B1238093B0048E
:100B60009093B104A093B204B093B30478941F910E
:100B70000F91FF90EF900895EF92FF920F931F93C4
:100B80007B018C018091B0049091B104A091B204DA
:100B9000B091B3048E299F29A02BB12B8093B00470
:100BA0009093B104A093B204B093B304C7018170D1
:100BB0009070892B59F08BE260E00E94BF0A82E0BE
:100BC0006BEA77E041E050E00E943E03E1FE0BC09B
:100BD0008CE260E00E94BF0A83E065EA76E040E0D4
:100BE00050E00E943E03E2FE0FC08BE260E00E94F4
:100BF000BF0A86E260E00E94BF0A82E06BEA77E00B
:100C000041E050E00E943E03E3FE13C08CE260E04E
:100C10000E94BF0A82E360E00E94BF0A8CE261E0AA
:100C20000E94DD0A83E065EA76E040E050E00E9441
:100C30003E03E4FE0FC08BE260E00E94BF0A87E241
:100C400060E00E94BF0A82E06BEA77E041E050E09A
:100C50000E943E03E5FE0FC083E061E00E94BF0AF0
:100C600083E061E00E94DD0A84E065EA76E040E02E
:100C700050E00E943E03F3FE0FC08BE260E00E9452
:100C8000BF0A8EE260E00E94BF0A82E06BEA77E072
:100C900041E050E00E943E03F4FE0FC08BE260E0B2
:100CA0000E94BF0A88E060E00E94BF0A82E06BEA0F
:100CB00077E041E050E00E943E03F5FE17C08BE272
:100CC00060E00E94BF0A8CE260E00E94BF0A87E0F9
:100CD00060E00E94BF0A8AE060E00E94BF0A82E0F2
:100CE0006BEA77E041E050E00E943E03F6FE17C059
:100CF0008BE260E00E94BF0A8CE260E00E94BF0AC3
:100D000087E060E00E94BF0A8AE060E00E94BF0ABC
:100D100083E065EA76E040E050E00E943E0300FF99
:100D20000FC084E060E00E94BF0A8CE260E00E9495
:100D3000BF0A83E065EA76E040E050E00E943E03AF
:100D40001F910F91FF90EF900895F8948091B00457
:100D50009091B104A091B204B091B30483FF26C076
:100D600082E30E94280B892B09F58091B4048F5FE0
:100D70008093B4048091AC049091AD04A091AE0432
:100D8000B091AF0488608093AC049093AD04A093BD
:100D9000AE04B093AF048091B8048F5F8093B80421
:100DA00068E070E080E090E00E945D058091B00412
:100DB0009091B104A091B204B091B304A0FF26C0F9
:100DC00084E00E94280B892B09F58091B4048F5F81
:100DD0008093B4048091AC049091AD04A091AE04D2
:100DE000B091AF04A1608093AC049093AD04A09344
:100DF000AE04B093AF048091C3048F5F8093C304AB
:100E000060E070E081E090E00E945D058091B004B8
:100E10009091B104A091B204B091B30485FF24C0B5
:100E200083E00E94280B892BF9F48091B4048F5F32
:100E30008093B4048091AC049091AD04A091AE0471
:100E4000B091AF0480628093AC049093AD04A09302
:100E5000AE04B093AF048091BA048F5F8093BA045C
:100E600083E061E00E94DD0A8091B0049091B104BA
:100E7000A091B204B091B30481FF20C089E20E9426
:100E8000280B892BD9F48091B4048F5F8093B4042C
:100E90008091AC049091AD04A091AE04B091AF04E8
:100EA00082608093AC049093AD04A093AE04B093A1
:100EB000AF048091B6048F5F8093B6048091B00434
:100EC0009091B104A091B204B091B30496FF41C0D7
:100ED0008091B0049091B104A091B204B091B30498
:100EE00083FF05C082E30E94280B892B91F5809136
:100EF000B0049091B104A091B204B091B30485FF05
:100F000005C083E00E94280B892B19F58091B40459
:100F10008F5F8093B4048091AC049091AD04A09154
:100F2000AE04B091AF0490648093AC049093AD0490
:100F3000A093AE04B093AF048091C2048F5F8093FE
:100F4000C20480E090E00000019623E0883E920712
:100F5000D1F778940895F8948091B0049091B104F9
:100F6000A091B204B091B30482FF20C086E20E9437
:100F7000280B892BD9F08091B4048F5F8093B4043F
:100F80008091AC049091AD04A091AE04B091AF04F7
:100F900084608093AC049093AD04A093AE04B093AE
:100FA000AF048091B7048F5F8093B7048091B00441
:100FB0009091B104A091B204B091B30484FF20C019
:100FC00087E20E94280B892BD9F08091B4048F5FAF
:100FD0008093B4048091AC049091AD04A091AE04D0
:100FE000B091AF0480618093AC049093AD04A09362
:100FF000AE04B093AF048091B9048F5F8093B904BD
:101000008091B0049091B104A091B204B091B30466
:1010100093FF20C08EE20E94280B892BD9F080918B
:10102000B4048F5F8093B4048091AC049091AD04BC
:10103000A091AE04B091AF0498608093AC049093FB
:10104000AD04A093AE04B093AF048091C0048F5F51
:101050008093C0048091B0049091B104A091B20437
:10106000B091B30481709070892B51F18091B004DC
:101070009091B104A091B204B091B30496FD20C048
:1010800089E20E94280B892BD9F08091B4048F5FEC
:101090008093B4048091AC049091AD04A091AE040F
:1010A000B091AF0481608093AC049093AD04A093A1
:1010B000AE04B093AF048091B5048F5F8093B50404
:1010C0008091B0049091B104A091B204B091B304A6
:1010D00094FF24C088E00E94280B892BF9F08091AE
:1010E000B4048F5F8093B40485E060E00E94DD0A61
:1010F0008091AC049091AD04A091AE04B091AF0486
:1011000090618093AC049093AD04A093AE04B0932F
:10111000AF048091C1048F5F8093C1048091B004BB
:101120009091B104A091B204B091B30495FF20C096
:1011300088E00E94280B892BD9F08091B4048F5F3E
:101140008093B4048091AC049091AD04A091AE045E
:10115000B091AF0490628093AC049093AD04A093DF
:10116000AE04B093AF048091C2048F5F8093C20439
:101170008091B0049091B104A091B204B091B304F5
:1011800096FF48C08091B0049091B104A091B20440
:10119000B091B30482FF05C086E20E94280B892B20
:1011A000C9F58091B0049091B104A091B204B091BE
:1011B000B30484FF05C087E20E94280B892B51F5F8
:1011C0008091B0049091B104A091B204B091B304A5
:1011D00093FF05C08EE20E94280B892BD9F48091E1
:1011E000B4048F5F8093B4048091AC049091AD04FB
:1011F000A091AE04B091AF0490648093AC0490933E
:10120000AD04A093AE04B093AF048091C2048F5F8D
:101210008093C20478940895F8941092AA048A30B6
:1012200008F089E0982F9770883008F090629061FC
:1012300084B7877F84BF809160008861809360005D
:101240009093600080916000806480936000789447
:1012500008951F920F920FB60F9211248F939F93B0
:10126000AF93BF9380916C0A90916D0AA0916E0A22
:10127000B0916F0A0196A11DB11D80936C0A9093E5
:101280006D0AA0936E0AB0936F0ABF91AF919F91C0
:101290008F910F900FBE0F901F9018951F920F9275
:1012A0000FB60F9211248F939F93AF93BF938091AA
:1012B000700A9091710AA091720AB091730A019616
:1012C000A11DB11D8093700A9093710AA093720AB8
:1012D000B093730ABF91AF919F918F910F900FBE02
:1012E0000F901F901895AF92BF92CF92DF92EF921E
:1012F000FF920F931F935B016C0160916C0A7091D8
:101300006D0A80916E0A90916F0A47E0660F771F11
:10131000881F991F4A95D1F72EE330E040E050E056
:101320000E94561A79018A0160916C0A70916D0AC7
:1013300080916E0A90916F0A37E0660F771F881FC1
:10134000991F3A95D1F72EE330E040E050E00E943B
:10135000561A2E193F09400B510B2A153B054C0517
:101360005D0510F31F910F91FF90EF90DF90CF90EC
:10137000BF90AF900895789484B7877F84BF109210
:101380006C0A10926D0A10926E0A10926F0A84B560
:10139000826084BD84B5816084BD85B5826085BD71
:1013A00085B5816085BDEEE6F0E080818160808357
:1013B000E1E8F0E0808182608083808181608083C9
:1013C000E0E8F0E0808181608083E1EBF0E0808103
:1013D00084608083E1E9F0E0808184608083E0EBD9
:1013E000F0E0808181608083E0E9F0E080818160CD
:1013F0008083E4E6F0E080818E7F8083ECE7F0E09C
:1014000080818F778083808180648083EAE7F0E049
:101410008081846080838081826080838081806815
:1014200080831092C1001092C90008959091D60453
:10143000982B9093D60480FF32C0809164008E7FF9
:101440008093640080917C008F7780937C008091F2
:101450007C00806480937C0080917A00846080931B
:101460007A0080917A00826080937A0080917A007D
:10147000806880937A00809164008F778093640005
:10148000809164008B7F80936400809164008D7FE5
:1014900080936400809165008E7F8093650008953D
:1014A000282F20959091D60492239093D60480FF04
:1014B0001EC080917A008F7780937A0080916400BB
:1014C00081608093640080916400806880936400F0
:1014D00080916400846080936400809164008260E5
:1014E0008093640080916500816080936500089519
:1014F000F89484B7877F84BFE0E6F0E08081886558
:101500008083108283E061E00E94DD0A7894089570
:101510001F920F920FB60F920BB60F9211242F93BA
:101520003F934F935F936F937F938F939F93AF936B
:10153000BF93EF93FF93F89481E08093AA04E0E6D1
:10154000F0E080818068808380818F7B808383E06E
:1015500060E00E94DD0A7894FF91EF91BF91AF9116
:101560009F918F917F916F915F914F913F912F91BB
:101570000F900BBE0F900FBE0F901F901895282F45
:1015800030E0C901895E9E4FFC0194912C513F4F80
:10159000F9018491882381F0E82FF0E0E453FF4FB4
:1015A000E491F0E0662329F480819095892380837B
:1015B00008958081892B80830895482F50E0CA01C7
:1015C000865B9E4FFC012491CA01895E9E4FFC01FF
:1015D00094914C515F4FFA0134913323C1F122238E
:1015E00031F1233021F4809180008F7705C02430C1
:1015F00031F4809180008F7D8093800018C021306D
:1016000019F484B58F7704C0223021F484B58F7D1E
:1016100084BD0DC0263021F48091B0008F7705C0C5
:10162000273029F48091B0008F7D8093B000E32FA4
:10163000F0E0EC52FF4FE491F0E0662329F4808162
:1016400090958923808308958081892B80830895D4
:10165000482F50E0CA01865B9E4FFC012491CA01CD
:10166000895E9E4FFC0194914C515F4FFA01349179
:10167000332319F420E030E035C0222331F1233048
:1016800021F4809180008F7705C0243031F480915F
:1016900080008F7D8093800018C0213019F484B5BC
:1016A0008F7704C0223021F484B58F7D84BD0DC0B6
:1016B000263021F48091B0008F7705C0273029F4BF
:1016C0008091B0008F7D8093B000E32FF0E0E45272
:1016D000FF4FE491F0E0808120E030E0892311F0B9
:1016E00021E030E0C901089508951F93CF93DF935F
:1016F000EC01162F8A818E7F8A8380EB96E06DE164
:1017000070E00E94361380EB96E0612F0E94581320
:1017100080EB96E00E947F1380EB96E06DE170E035
:1017200041E050E00E94A01380EB96E00E9440133D
:10173000882339F080EB96E00E944613282F30E092
:1017400005C08A8181608A832FEF3FEFC901DF9155
:10175000CF911F910895FF920F931F93CF93DF9323
:10176000EC01F62E042F8A818D7F8A8380EB96E030
:101770006DE170E00E94361380EB96E06F2D0E94C1
:10178000581380EB96E0602F0E94581380EB96E090
:101790000E947F13CE016F2D0E94750B10E0801701
:1017A000910719F420E030E005C08A8182608A83C5
:1017B0002FEF3FEFC901DF91CF911F910F91FF9064
:1017C0000895CF93DF93EC016883613059F461E2AF
:1017D00040E00E94AB0BCE0160E247E00E94AB0B01
:1017E0001C8212C0623081F461E240E00E94AB0BC7
:1017F000CE0160E247E40E94AB0BCE0162E248E01A
:101800000E94AB0B81E08C8380E0DF91CF91089543
:10181000CF93DF93EC0168E340E00E94AB0BCE0175
:101820006AE30E94750B89818D7F8983882331F457
:1018300064E070E080E090E00E945D058A81DF91C5
:10184000CF910895FF920F931F938C01F62E0E9463
:10185000080CC80160E247EC0E94AB0BC80161E2D2
:1018600048E00E94AB0BC80162E24BE40E94AB0B64
:10187000C8016CE340E00E94AB0BC8016DE340E39C
:101880000E94AB0BC8016EE340E00E94AB0BC801A5
:101890006FE34CE30E94AB0BC80163E20E94750B3F
:1018A00080ECF82AC80168E34F2D0E94AB0BF801C9
:1018B00081818260818364E070E080E090E00E943A
:1018C000BC05F80182811F910F91FF900895CF937D
:1018D000DF93EC018091F004882331F48EED94E0E5
:1018E00061E041E00E94551182E088838091B0065A
:1018F000882321F480EB96E00E94A313DF91CF911F
:1019000008950F931F938C010E94670CC80162E039
:101910000E94E10B1F910F9108950895EF92FF929D
:101920000F931F9389E161E00E94BF0A89E161E0A2
:101930000E94DD0A80E00E94B915AA2797FDA095B4
:10194000BA2FBC01CD010E9420197B018C0120E03F
:1019500030E040E054E40E948118882334F489E1A7
:1019600060E00E94DD0A10E046C0C801B70120E037
:1019700030EC42E254E40E94D019181634F489E1A4
:1019800060E00E94DD0A14E636C0C801B70120E01D
:1019900030EC42E254E40E9481181816BCF0C801F1
:1019A000B70120E030EC47E054E40E94D01918164B
:1019B0006CF4C801B70125E535E545E55FE30E9414
:1019C000D41920E030E04DED53E40CC0C801B7015C
:1019D00020E030E040EA5EE30E94D41920E030E0ED
:1019E00040E253E40E941C180E94F218162F89E16D
:1019F00060E00E94DD0A812F1F910F91FF90EF9010
:101A000008951F93162F80917A008F7780937A0024
:101A100081E261E00E94BF0A81E260E00E94DD0A8B
:101A20008BE161E00E94BF0A8BE160E00E94DD0A69
:101A300010FF10C08AE161E00E94BF0A8AE160E005
:101A40000E94DD0A88E161E00E94BF0A88E160E04F
:101A50000E94DD0A11FF09C086E696E00E9431135C
:101A600086E696E063E00E94F31212FF13C081E065
:101A70000E941F178FE261E00E94BF0A8FE260E0C0
:101A80000E94DD0A83E261E00E94BF0A83E260E017
:101A90000E94DD0A14FF0EC08091D80480FD0AC0A8
:101AA00081FD08C080E361E00E94BF0A80E360E03E
:101AB0000E94DD0A13FF08C089E161E00E94BF0AAD
:101AC00089E160E00E94DD0A1F9108951F93142FA1
:101AD000613051F460E270E080E090E00E94BC056B
:101AE000812F0E940C090AC0623041F460E270E06C
:101AF00080E090E00E945D050E94780A1F910895A1
:101B0000FF920F931F938C01F62E642F0E94010DFC
:101B100083B7817F846083BF83B7816083BFC8013F
:101B200061E04F2D0E94660D83B7816083BF889569
:101B300083B78E7F83BF83B78E7F83BFEAE7F0E0F2
:101B40008081806880831F910F91FF900895FC0130
:101B5000138A148A158A168A178A108E118E128E8D
:101B6000138E148E158E168E178E10A211A212A22D
:101B700080E090E0A0E0B0E083A394A3A5A3B6A387
:101B80000895262F862F6AE00E94371A492F30E0E9
:101B9000C901841B91096AE070E00E94431AE4E0E5
:101BA000660F771FEA95E1F7842F862B0895089535
:101BB000CF93DF93EC018D89843009F45FC08530C9
:101BC00048F4823059F1833008F040C0813009F088
:101BD000D2C00AC0863009F481C0863008F466C0DD
:101BE000873009F0C8C092C08DB79EB742970FB634
:101BF000F8949EBF0FBE8DBFEDB7FEB73196A89685
:101C0000ADB7BEB71296DC93CE931197A8978EE32B
:101C100093E09383828382E693E08FC0ADB7BEB733
:101C200052970FB6F894BEBF0FBEADBFEDB7FEB76B
:101C30003196A8961296DC93CE931197A8978EE3CF
:101C400093E09383828389E693E077C0ADB7BEB714
:101C500052970FB6F894BEBF0FBEADBFEDB7FEB73B
:101C60003196A8961296DC93CE931197A8978EE39F
:101C700093E09383828380E793E05FC0ADB7BEB704
:101C800052970FB6F894BEBF0FBEADBFEDB7FEB70B
:101C90003196A8961296DC93CE931197A8978EE36F
:101CA00093E09383828388E793E047C0ADB7BEB7E4
:101CB00052970FB6F894BEBF0FBEADBFEDB7FEB7DB
:101CC0003196A8961296DC93CE931197A8978EE33F
:101CD00093E09383828382E893E02FC0ADB7BEB7D1
:101CE00052970FB6F894BEBF0FBEADBFEDB7FEB7AB
:101CF0003196A8961296DC93CE931197A8978EE30F
:101D000093E0938382838BE893E017C0ADB7BEB7AF
:101D100052970FB6F894BEBF0FBEADBFEDB7FEB77A
:101D20003196A8961296DC93CE931197A8978EE3DE
:101D300093E09383828382E993E0958384838B8904
:101D4000868317828C8980871186898D8287138686
:101D50008E89848715868F8986871786888D808BE4
:101D6000118A0E94BC1A8DB79EB742960FB6F8949E
:101D70009EBF0FBE8DBF9E01285D3F4FC901DF9101
:101D8000CF910895DF92EF92FF920F931F938C01F2
:101D9000D62EA0EBEA2EA6E0FA2EC70168E670E088
:101DA0000E943613C7016D2D0E9458130D0D111D91
:101DB000C701F80160810E945813C7010E947F1378
:101DC0001F910F91FF90EF90DF9008958091ED04A7
:101DD0008C7F8093ED048EED94E06FE00E94C20E44
:101DE00008951F93CF93DF93EC01162F80EB96E0BD
:101DF00068E670E00E94361380EB96E0612F0E9447
:101E0000581380EB96E00E947F1380EB96E068E623
:101E100070E041E050E00E94A01380EB96E00E9449
:101E200040138823D1F380EB96E00E944613C10F44
:101E3000D11D888380EB96E00E947F13DF91CF91C4
:101E40001F910895CF93DF93EC0161E10E94F10EA1
:101E5000CE0162E10E94F10E2989422F552747FDEC
:101E60005095440F551F440F551F8A8990E036E066
:101E7000969587953A95E1F7480F591F30E0220F64
:101E8000232F221F330B2130310561F4662777277A
:101E9000641B750B882777FD8095982F0E94201969
:101EA000905807C0BA01882777FD8095982F0E9427
:101EB00020196BA37CA38DA39EA320E030E040E813
:101EC0005EE30E94D4196BA37CA38DA39EA32BA1D8
:101ED0003CA14DA15EA1B901CA01DF91CF91089546
:101EE0000F931F93CF93DF93EC0180EB96E068E6AE
:101EF00070E00E94361380EB96E060E070E00E9494
:101F00007C13CE01688D0E94C10D8883CE016F893C
:101F10000E94C10D8983CE016E890E94C10D8A8302
:101F20008D898B83CE01698D0E94C10D8C83CE017A
:101F30006C890E94C10D8D83CE016B890E94C10DF9
:101F40008E8300E010E0FE01E00FF11F80EB96E0D1
:101F500060810E9458130F5F1F4F0730110599F7DA
:101F600080EB96E00E947F13DF91CF911F910F913C
:101F70000895DC01FB0121812053808180533AE0E8
:101F8000839FC0011124280F53962C9353972481CB
:101F9000205383818053839FC0011124280F5496BE
:101FA0002C9354972781205386818053839FC001AF
:101FB0001124280F59962C935997228520538185F7
:101FC0008053839FC0011124280F55962C93559759
:101FD0002585205384858053839FC0011124280FB9
:101FE00056962C9356972089205387858053839F3C
:101FF000C0011124280F57962C93579723892053FB
:1020000082898053839FC0011124280F58962C93F6
:102010005897CD010E94700F0895CF92DF92EF92F2
:10202000FF921F93CF93DF937C01162F80EB96E0F6
:1020300068E670E00E94361380EB96E060E070E0A6
:102040000E947C1380EB96E00E947F1380EB96E069
:1020500068E670E042E150E00E94A013C0E0D0E0EA
:10206000C12EDD241AE009C180EB96E00E944013E6
:10207000882309F402C180EB96E00E944613282FC2
:10208000F701EC0FFD1F8083C630D10509F482C033
:10209000C730D105B8F4C230D10509F44EC0C33001
:1020A000D10538F4209769F1C130D10509F0E4C0B9
:1020B00036C0C430D10509F451C0C530D10508F08F
:1020C0005BC049C0CA30D10509F49BC0CB30D105F3
:1020D00058F4C830D10509F478C090E02F70C930A9
:1020E000D10508F081C064C0CC30D10509F4A7C087
:1020F000CC30D10508F494C0CD30D10509F0BCC076
:10210000ADC090E054E0959587955A95E1F7819F91
:10211000C00111242F70280FF701208FADC090E06F
:1021200044E0959587954A95E1F7819FC001112478
:102130002F70280FF701278B9FC090E034E0959512
:1021400087953A95E1F7819FC00111242F70280FE0
:10215000F701268B91C0F701858B8EC090E0B4E02B
:1021600095958795BA95E1F7819FC00111242F704D
:10217000280FF701218F80C090E0A4E09595879506
:10218000AA95E1F7819FC00111242F70280FF70154
:10219000248B72C090E0F4E095958795FA95E1F76D
:1021A000819FC00111242F70280FF701238B64C079
:1021B000E4E095958795EA95E1F78770819FC001E6
:1021C0001124280FF701228F57C090E074E09595F5
:1021D00087957A95E1F78770819FC00111242F7050
:1021E000280FF701238F48C064E0959587956A957D
:1021F000E1F78370819FC0011124280FF701248F1C
:102200003BC090E054E0959587955A95E1F783702F
:10221000819FC00111242F70280FF701258F2CC03A
:1022200090E044E0959587954A95E1F78770819F06
:10223000C00111242F70280FF701268F1DC090E0D8
:1022400034E0959587953A95E1F78370819FC001B9
:1022500011242F70280FF701278F0EC090E0B4E0F3
:1022600095958795BA95E1F78370819FC0011124F8
:102270002F70280FF70120A32196CC16DD0608F059
:10228000F3CEDF91CF911F91FF90EF90DF90CF9031
:1022900008950F931F938C0166E00E940D10C801F2
:1022A0000E94D80D1F910F9108950F931F93CF9304
:1022B000DF93EC01042F6FA380E361E00E94BF0A6B
:1022C0001FA1113019F0103199F40DC080E361E0C5
:1022D0000E94DD0A013019F482E08A8B09C00023D4
:1022E00039F41A8B05C080E360E00E94DD0A1A8A87
:1022F000DF91CF911F910F910895CF93DF93EC0160
:1023000061E040E00E9455118091B006882321F4DD
:1023100080EB96E00E94A313CE010E94E60ECE0150
:102320000E94A70DCE016DE00E940D10DF91CF91AC
:1023300008950E947D1108951092250508950F9328
:10234000FC01CB01BA012AE030E040E050E000811E
:102350000E947D160F9108950F931F938C018DE0BD
:10236000F80160810E9456168AE0F80160810E949F
:1023700056161F910F910895EF92FF920F931F939E
:10238000CF93DF93EC017A018B0177FF0CC08DE2D4
:1023900068810E94561610950095F094E094E11C17
:1023A000F11C011D111DC801B7012AE030E040E019
:1023B00050E008810E947D16DF91CF911F910F910F
:1023C000FF90EF9008950F931F93FC01DA018B01AA
:1023D0002115310529F4842F60810E9456160EC004
:1023E0002A30310519F40E94BC1108C030E040E0E9
:1023F00050E0BD01C80100810E947D161F910F9120
:1024000008950F931F938C010E94E311C8010E944D
:10241000AC111F910F910895FC01CB0160810E94C6
:10242000671608959F92AF92BF92CF92DF92EF927C
:10243000FF920F931F93CF93DF93EC017A018B01EF
:10244000922ECB01BA0120E030E040E050E00E9443
:102450008118882344F48DE268810E94561617FB88
:10246000109517F9109520E030E040E05FE3AA24D2
:102470000BC0CA01B90120E030E040E251E40E9403
:1024800085189B01AC01A394A91498F3C801B70166
:102490000E941D185B016C010E94F2187B018C01E7
:1024A000CE01B801A7010E949F11992029F085EE65
:1024B00093E068810E946716C801B7010E941E1947
:1024C0009B01AC01C601B5010E941C1820C020E090
:1024D00030E040E251E40E94D4197B018C010E945B
:1024E000ED185B016C01CC24B7FCC094DC2CCE0150
:1024F000B601A5010E94BC11C601B5010E942019B8
:102500009B01AC01C801B7010E941C189A94992044
:10251000F1F6DF91CF911F910F91FF90EF90DF9037
:10252000CF90BF90AF909F9008952AE00E94121222
:1025300008950F931F938C01CB01F80160810E94D5
:102540006716C8010E94AC111F910F910895FC01FC
:1025500080810E941F170895FC0160E076E980E009
:1025600090E040810E943D17089508958FE261E058
:102570000E94BF0A84E261E00E94BF0A85E261E036
:102580000E94BF0A8FE261E00E94DD0A84E261E0FE
:102590000E94DD0A85E261E00E94DD0A08950F9342
:1025A0001F93162F042F8FE261E00E94BF0A84E27E
:1025B00061E00E94BF0A85E261E00E94BF0A8FE2EB
:1025C00061E00E94DD0A84E2612F0E94DD0A85E25B
:1025D000602F0E94DD0A1F910F91089510926606E8
:1025E000109268060895FC016183613019F0633030
:1025F000B9F518C08081882311F486E111C086E204
:1026000095E00E94B61286E061E00E94BF0A86E073
:1026100061E00E94DD0A8AE261E00E94BF0A8AE26C
:1026200061E005C08081882329F486E160E00E9492
:10263000DD0A089586E295E060E040E00E94CF1256
:1026400086E061E00E94BF0A86E060E00E94DD0A49
:102650008AE261E00E94BF0A8AE260E00E94DD0A2D
:102660000895FC0180810E941F17089581E08093E6
:10267000AF0660938C061092AD061092AE060895D8
:1026800080918B0690918A06891B089590918A0605
:1026900080918B06981710F080E00895E92FF0E004
:1026A000E659F94F80819F5F90938A0608950895B7
:1026B000DF93CF930F92CDB7DEB769838091AF06DA
:1026C000882389F08091AE06803290F48091AD0627
:1026D000E82FF0E0E357F94F60838F5F8093AD06FA
:1026E0008093AE0605C0CE01019661E00E943E14C3
:1026F0000F90CF91DF9108950E9458130895809113
:102700008C066DE876E04091AE0621E00E94101440
:102710001092AD061092AE061092AF0608951F9368
:10272000142F413208F010E2862F6AE676E0412F3E
:102730000E94E41310928A0610938B061F9108954D
:102740000E948F1308950F931F938C0110928A0695
:1027500010928A0610928B061092AD061092AD066A
:102760001092AE060E94BA1381E0F80180831F9197
:102770000F9108951092B106589A599A8091B90014
:102780008E7F8093B9008091B9008D7F8093B900CE
:1027900080E28093B80085E48093BC00E7EBF6E02C
:1027A000119286E0E73DF807D9F7E9EDF6E01192DE
:1027B00086E0E93FF807D9F7EBEFF6E0119287E002
:1027C000EB31F807D9F70895982F413210F081E0E6
:1027D00008958091B1068823E1F781E08093B106E6
:1027E0001092D7064093D806990F91609093B20645
:1027F00085EE8093BC008091B1068130E1F320E04A
:1028000030E00AC0FB01E20FF31FD901A954B94F10
:102810008C9180832F5F3F4F2417A0F380E00895B1
:102820001F93582F122F413210F081E025C0809164
:10283000B1068823E1F782E08093B1061092D706B3
:102840004093D806A7EBB6E0FB0102C081918D93BF
:102850008E2F861B8417D0F3852F90E0880F991F49
:102860008093B20685EE8093BC00112321F0809105
:10287000B1068230E1F380E01F910895482F613264
:1028800010F081E008958091B106843011F082E06B
:1028900008956093FA06A9EDB6E0842F9C01F90132
:1028A00002C081918D938E2F841B8617D0F380E018
:1028B00008951F920F920FB60F920BB60F9211242C
:1028C0002F933F934F935F936F937F938F939F9338
:1028D000AF93BF93EF93FF938091B90090E0887F0F
:1028E00090708036910509F4CAC081369105CCF507
:1028F0008832910509F47BC089329105B4F48031A6
:10290000910509F46FC0813191053CF4009709F4F9
:1029100014C1089709F01AC165C08831910509F4FE
:1029200066C0809709F012C17DC08034910509F41A
:102930008DC08134910544F48033910509F472C04F
:10294000C89709F003C1F5C08035910509F472C03C
:102950008835910509F47FC08834910509F0F6C0E7
:1029600086C08839910509F4E0C089399105ECF4F5
:102970008837910509F483C0893791054CF488366E
:10298000910509F47CC08037910509F0DFC077C05C
:102990008838910509F4C9C08039910509F475C0DA
:1029A0008038910509F0D2C070C0803B910509F4D0
:1029B00093C0813B91054CF4803A910509F477C0AE
:1029C000883A910509F0C2C087C0803C910509F49E
:1029D000B0C0883C910509F4ACC0883B910509F072
:1029E000B5C08FC08091B2068093BB009CC090910F
:1029F000D7068091D806981768F49091D706E92FEA
:102A0000F0E0E954F94F80818093BB009F5F909381
:102A1000D70689C085ED8093BC008091BC0084FD01
:102A2000FCCF92C085ED8093BC008091BC0084FDFA
:102A3000FCCF8AC08091D7069091BB00E82FF0E0D0
:102A4000E954F94F90838F5F8093D7069091D70612
:102A50008091D80666C08091D7069091BB00E82F80
:102A6000F0E0E954F94F90838F5F8093D70685EDAE
:102A70008093BC008091BC0084FDFCCF65C083E0E6
:102A80008093B10610921B074EC080911B078032C5
:102A900008F04BC080911B079091BB00E82FF0E03D
:102AA000E550F94F90838F5F80931B073CC0809166
:102AB0001B07803230F4E0911B07F0E0E550F94F3E
:102AC000108260911B07E091B506F091B6068BEF7E
:102AD00096E070E009952DC084E08093B1061092D5
:102AE000F9061092FA06E091B306F091B406099542
:102AF0008091FA06882329F481E08093FA061092E7
:102B0000D9069091F906E92FF0E0E752F94F80815C
:102B10008093BB009F5F9093F9069091F906809196
:102B2000FA06981710F485EC01C085E88093BC0084
:102B30000DC085EC8093BC0007C085ED8093BC0080
:102B40008091BC0084FDFCCF1092B106FF91EF9103
:102B5000BF91AF919F918F917F916F915F914F91B5
:102B60003F912F910F900BBE0F900FBE0F901F90B3
:102B7000189590917C008F70907F892B80937C00BA
:102B800080917A00806480937A0080917A0086FD3B
:102B9000FCCF2091780040917900942F80E030E0C4
:102BA000282B392BC90108951F920F920FB60F924F
:102BB0000BB60F9211242F933F934F935F936F9314
:102BC0007F938F939F93AF93BF93EF93FF93409126
:102BD000C600E0911C07F0911D07CF01019660E04F
:102BE00072E00E94431A9C0180911E0790911F077A
:102BF0002817390739F0EC58F34F408330931D07FD
:102C000020931C07FF91EF91BF91AF919F918F91FE
:102C10007F916F915F914F913F912F910F900BBEDC
:102C20000F900FBE0F901F9018951F920F920FB626
:102C30000F920BB60F9211242F933F934F935F93F4
:102C40006F937F938F939F93AF93BF93EF93FF9374
:102C50004091CE00E0912007F0912107CF0101962D
:102C600060E072E00E94431A9C01809122079091DB
:102C700023072817390739F0EC58F54F4083309374
:102C8000210720932007FF91EF91BF91AF919F9172
:102C90008F917F916F915F914F913F912F910F9005
:102CA0000BBE0F900FBE0F901F901895982F6623A4
:102CB00039F48091C00085FFFCCF9093C600089541
:102CC0008091C80085FFFCCF9093CE000895FC0151
:102CD00010C03196662339F48091C00085FFFCCF87
:102CE0009093C60006C08091C80085FFFCCF9093EA
:102CF000CE009081992369F708952F923F924F92C9
:102D00005F926F927F928F929F92AF92BF92CF927B
:102D1000DF92EF92FF920F931F93DF93CF93CDB784
:102D2000DEB7A1970FB6F894DEBF0FBECDBF6B0123
:102D30007C0129013A0109A36115710581059105FD
:102D400091F4002341F48091C00085FFFCCF80E323
:102D50008093C6005BC08091C80085FFFCCF80E3F4
:102D60008093CE0053C08824992454011E010894F6
:102D7000211C311C8101080D191DC701B601A301D9
:102D800092010E94561AF80160830894811C911CDC
:102D9000A11CB11CC701B601A30192010E94561AE1
:102DA000C901DA016C017D01C114D104E104F1040F
:102DB00009F79101280D391DBE016F5F7F4FD501C5
:102DC000C4010197A109B109AC01481959091BC0F7
:102DD000FA01E20FF31FE081EA3010F4E05D01C078
:102DE000E95CF9A1FF2339F48091C00085FFFCCF95
:102DF000E093C60006C08091C80085FFFCCFE09339
:102E0000CE00215030406217730711F7A1960FB61C
:102E1000F894DEBF0FBECDBFCF91DF911F910F9110
:102E2000FF90EF90DF90CF90BF90AF909F908F90EA
:102E30007F906F905F904F903F902F9008958823E0
:102E400071F488E00E94500A8091C1008F7E8093C7
:102E5000C1008091C100877F8093C100089580E107
:102E60000E94500A8091C9008F7E8093C900809192
:102E7000C900877F8093C9000895EF92FF920F9356
:102E80001F937B018C014423C1F588E00E94160A40
:102E9000C801B70122E030E040E050E00E94781A1B
:102EA000205E3E45484F5F4FCA01B901A801970116
:102EB0000E94781AC901DA010197A109B109292FE5
:102EC0003A2F4B2F552747FD5A950196A11DB11D4D
:102ED0002093C50081508093C4008091C10080611F
:102EE0008093C1008091C10088608093C10080916F
:102EF000C10080688093C10037C080E10E94160A3B
:102F0000C801B70122E030E040E050E00E94781AAA
:102F1000205E3E45484F5F4FCA01B901A8019701A5
:102F20000E94781AC901DA010197A109B109292F74
:102F30003A2F4B2F552747FD5A950196A11DB11DDC
:102F40002093CD0081508093CC008091C900806196
:102F50008093C9008091C90088608093C9008091E6
:102F6000C90080688093C9001F910F91FF90EF9076
:102F70000895FC0180EC92E1A0E0B0E080839183B1
:102F8000A283B38381E08483E755FF4F22E020834F
:102F9000E95AF0401782168280E890E09187808796
:102FA0001286238787EE93E095AB84AB8DEE93E09A
:102FB00097AB86AB84EF93E091AF80AF88EF93E05F
:102FC00093AF82AF8BEF93E095AF84AF8DEF93E03B
:102FD00097AF86AFE05CFF4F87E094E081939193D9
:102FE00082E194E0819391931082089584E297E0C6
:102FF0000E94B91708951092DF091092E00910920B
:10300000E3091092E5091092E80908951092020A66
:1030100010921C0A1092360A089582E090E0A0E017
:10302000B0E080934E0A90934F0AA093500AB09359
:10303000510A1092650A08955058BB27AA270ED04E
:1030400075C166D130F06BD120F031F49F3F11F49F
:103050001EF45BC10EF4E095E7FB51C1E92F77D177
:1030600080F3BA17620773078407950718F071F4A5
:103070009EF58FC10EF4E0950B2EBA2FA02D0B01FB
:10308000B90190010C01CA01A0011124FF27591BAD
:1030900099F0593F50F4503E68F11A16F040A22FB3
:1030A000232F342F4427585FF3CF46953795279524
:1030B000A795F0405395C9F77EF41F16BA0B620B23
:1030C000730B840BBAF09150A1F0FF0FBB1F661F6A
:1030D000771F881FC2F70EC0BA0F621F731F841FAD
:1030E00048F4879577956795B795F7959E3F08F0D3
:1030F000B3CF9395880F08F09927EE0F9795879592
:103100000895D9D008F481E008950CD00FC107D1FB
:1031100040F0FED030F021F45F3F19F0F0C05111C3
:1031200039C1F3C014D198F39923C9F35523B1F3EE
:10313000951B550BBB27AA2762177307840738F026
:103140009F5F5F4F220F331F441FAA1FA9F333D085
:103150000E2E3AF0E0E830D091505040E695001C39
:10316000CAF729D0FE2F27D0660F771F881FBB1FF5
:10317000261737074807AB07B0E809F0BB0B802DCF
:10318000BF01FF2793585F4F2AF09E3F510568F01B
:10319000B6C000C15F3FECF3983EDCF386957795AF
:1031A0006795B795F7959F5FC9F7880F911D96951D
:1031B000879597F90895E1E0660F771F881FBB1F79
:1031C000621773078407BA0720F0621B730B840B26
:1031D000BA0BEE1F88F7E095089504D06894B111FA
:1031E000D9C00895BCD088F09F5790F0B92F992787
:1031F000B751A0F0D1F0660F771F881F991F1AF002
:10320000BA95C9F712C0B13081F0C3D0B1E00895CA
:10321000C0C0672F782F8827B85F39F0B93FCCF34B
:10322000869577956795B395D9F73EF490958095F7
:10323000709561957F4F8F4F9F4F0895E89409C017
:1032400097FB3EF490958095709561957F4F8F4FD9
:103250009F4F9923A9F0F92F96E9BB279395F695EF
:10326000879577956795B795F111F8CFFAF4BB0F6D
:1032700011F460FF1BC06F5F7F4F8F4F9F4F16C0D1
:10328000882311F096E911C0772321F09EE8872F5B
:10329000762F05C0662371F096E8862F70E060E017
:1032A0002AF09A95660F771F881FDAF7880F969590
:1032B000879597F90895990F0008550FAA0BE0E834
:1032C000FEEF16161706E807F907C0F012161306E8
:1032D000E407F50798F0621B730B840B950B39F428
:1032E0000A2661F0232B242B252B21F408950A268E
:1032F00009F4A140A6958FEF811D811D089597F9CE
:103300009F6780E870E060E008959FEF80EC08958B
:1033100000240A94161617061806090608950024B4
:103320000A9412161306140605060895092E03942E
:10333000000C11F4882352F0BB0F40F4BF2B11F4A2
:1033400060FF04C06F5F7F4F8F4F9F4F089557FD01
:103350009058440F551F59F05F3F71F04795880F03
:1033600097FB991F61F09F3F79F08795089512169A
:1033700013061406551FF2CF4695F1DF08C0161646
:1033800017061806991FF1CF8695710561050894F7
:103390000895E894BB2766277727CB0197F908950E
:1033A0008ADF08F48FEF08950BD0C0CFB1DF28F08B
:1033B000B6DF18F0952309F0A2CFA7CF1124EACFEA
:1033C000C6DFA0F3959FD1F3950F50E0551F629F84
:1033D000F001729FBB27F00DB11D639FAA27F00D6E
:1033E000B11DAA1F649F6627B00DA11D661F829F95
:1033F0002227B00DA11D621F739FB00DA11D621F7A
:10340000839FA00D611D221F749F3327A00D611D96
:10341000231F849F600D211D822F762F6A2F112478
:103420009F5750408AF0E1F088234AF0EE0FFF1FCB
:10343000BB1F661F771F881F91505040A9F79E3F02
:10344000510570F05CCFA6CF5F3FECF3983EDCF304
:10345000869577956795B795F795E7959F5FC1F73F
:10346000FE2B880F911D9695879597F90895991BC6
:1034700079E004C0991F961708F0961B881F7A956B
:10348000C9F78095089597FB092E07260AD077FD86
:1034900004D049D006D000201AF4709561957F4F72
:1034A0000895F6F7909581959F4F0895A1E21A2E01
:1034B000AA1BBB1BFD010DC0AA1FBB1FEE1FFF1FD8
:1034C000A217B307E407F50720F0A21BB30BE40B28
:1034D000F50B661F771F881F991F1A9469F760956F
:1034E0007095809590959B01AC01BD01CF01089529
:1034F00097FB092E05260ED057FD04D0D7DF0AD042
:10350000001C38F450954095309521953F4F4F4F12
:103510005F4F0895F6F790958095709561957F4F70
:103520008F4F9F4F0895AA1BBB1B51E107C0AA1FD5
:10353000BB1FA617B70710F0A61BB70B881F991F54
:103540005A95A9F780959095BC01CD010895EE0F8D
:10355000FF1F0590F491E02D0994FB01DC0141501F
:10356000504048F001900D920020C9F701C01D9213
:1035700041505040E0F708950F931F93DF93CF938E
:10358000CDB7DEB72E970FB6F894DEBF0FBECDBF16
:103590000D891E8986E08C831A8309838FEF9FE74C
:1035A0009E838D839E01275E3F4FCE0101966F89DA
:1035B000788DA9010E94ED1A2F813885020F131F03
:1035C000F80110822E960FB6F894DEBF0FBECDBF65
:1035D000CF91DF911F910F9108952F923F924F92BB
:1035E0005F926F927F928F929F92AF92BF92CF9293
:1035F000DF92EF92FF920F931F93DF93CF93CDB79C
:10360000DEB72B970FB6F894DEBF0FBECDBF3C01DF
:103610002B015A01FC0117821682838181FD03C0B0
:103620006FEF7FEFC6C19AE0892E1E010894211C1E
:10363000311CF3012381F20123FD859123FF819148
:103640002F01882309F4B2C1853239F423FD859115
:1036500023FF81912F01853229F490E0B3010E946C
:10366000091DE7CF982FFF24EE249924FFE1FF15D1
:10367000D0F09B3269F09C3228F4903259F09332AA
:1036800091F40EC09D3249F0903369F441E024C0BA
:1036900052E0F52A84E0F82A28C098E0F92A25C0EB
:1036A000E0E1FE2A22C0F7FC29C0892F80538A302E
:1036B00070F4F6FE05C0989C902C1124980E15C04D
:1036C000E89CE02C1124E80EF0E2FF2A0EC09E32A6
:1036D00029F4F6FC6BC140E4F42A07C09C3619F4C7
:1036E00050E8F52A02C0983649F4F20123FD95917D
:1036F00023FF91912F01992309F0B8CF892F855489
:10370000833018F08052833038F444E050E0A40E47
:10371000B51E5FE359830FC0933631F0933779F0CC
:10372000933509F056C020C0F5018081898342E0BD
:1037300050E0A40EB51E610101E010E012C0F501D9
:10374000C080D180F6FC03C06FEF7FEF02C0692D0F
:1037500070E042E050E0A40EB51EC6010E94FE1CBF
:103760008C015FE7F52214C0F501C080D180F6FC22
:1037700003C06FEF7FEF02C0692D70E042E050E0C0
:10378000A40EB51EC6010E94F31C8C0150E8F52A58
:10379000F3FE07C01AC080E290E0B3010E94091D49
:1037A000EA948E2D90E008171907A8F30EC0F601D1
:1037B000F7FC8591F7FE81916F0190E0B3010E94C3
:1037C000091DE110EA94015010400115110579F727
:1037D000EAC0943611F0993669F5F7FE08C0F50194
:1037E000208131814281538184E090E00AC0F5015B
:1037F000808191819C01442737FD4095542F82E0C0
:1038000090E0A80EB91E9FE6F92257FF09C0509517
:103810004095309521953F4F4F4F5F4FE0E8FE2A8E
:10382000CA01B901A1012AE030E00E94351DD82E5D
:10383000D21840C0953729F41F2D1F7E2AE030E0B2
:103840001DC01F2D197F9F3661F0903720F49835E9
:1038500009F0ACC00FC0903739F0983709F0A6C016
:1038600004C028E030E00AC0106114FD146020E1BB
:1038700030E004C014FD166020E132E017FF08C0FC
:10388000F501608171818281938144E050E008C03C
:10389000F50180819181BC0180E090E042E050E040
:1038A000A40EB51EA1010E94351DD82ED2188FE797
:1038B000F82EF122F6FE0BC05EEFF522D91438F493
:1038C000F4FE07C0F2FC05C08FEEF82202C01D2DE9
:1038D00001C0192DF4FE0DC0FE01ED0DF11D80811A
:1038E000803319F499EEF92208C01F5FF2FE05C07B
:1038F00003C08F2D867809F01F5F0F2DF3FC14C0D5
:10390000F0FE0FC01E1510F09D2C0BC09D2C9E0CC0
:10391000911A1E2D06C080E290E0B3010E94091D9D
:103920001F5F1E15C0F304C01E1510F4E11A01C07C
:10393000EE2404FF0FC080E390E0B3010E94091D54
:1039400002FF1DC001FD03C088E790E00EC088E5BE
:1039500090E00BC0802F867891F001FF02C08BE2CF
:1039600001C080E2F7FC8DE290E0B3010E94091DE6
:1039700006C080E390E0B3010E94091D9A94D91417
:10398000C0F3DA94F101ED0DF11D808190E0B301F7
:103990000E94091DDD20A9F706C080E290E0B30176
:1039A0000E94091DEA94EE20C1F743CEF30166811F
:1039B0007781CB012B960FB6F894DEBF0FBECDBF3B
:1039C000CF91DF911F910F91FF90EF90DF90CF90FB
:1039D000BF90AF909F908F907F906F905F904F902F
:1039E0003F902F900895FC010590615070400110A8
:1039F000D8F7809590958E0F9F1F0895FC01615018
:103A0000704001900110D8F7809590958E0F9F1F00
:103A100008950F931F93CF93DF938C01EB018B815C
:103A200081FF1BC082FF0DC02E813F818C819D8153
:103A30002817390764F4E881F9810193F983E88351
:103A400006C0E885F985802F0995892B31F48E8190
:103A50009F8101969F838E8302C00FEF1FEFC801E5
:103A6000DF91CF911F910F910895FA01AA27283075
:103A700051F1203181F1E8946F936E7F6E5F7F4F3B
:103A80008F4F9F4FAF4FB1E03ED0B4E03CD0670FB7
:103A9000781F891F9A1FA11D680F791F8A1F911D0A
:103AA000A11D6A0F711D811D911DA11D20D009F45A
:103AB00068943F912AE0269F11243019305D31939C
:103AC000DEF6CF010895462F4770405D4193B3E085
:103AD0000FD0C9F7F6CF462F4F70405D4A3318F02C
:103AE000495D31FD4052419302D0A9F7EACFB4E0DD
:103AF000A6959795879577956795BA95C9F7009795
:103B00006105710508959B01AC010A2E0694579535
:103B1000479537952795BA95C9F7620F731F841F8C
:0A3B2000951FA01D0895F894FFCF33
:103B2A000954656D70657261747572653A2000207A
:103B3A0043000942617474657279204C6576656C3C
:103B4A003A200020250043757272656E74207469EC
:103B5A006D653A20004379636C653A20002D2D2D5E
:103B6A002D2D2D2D2D2D2D2D2D2D2D2D2D2D2D2D7B
:103B7A002D2D2D2D2D2D2D2D2D2D2D2D2D2D2D2D6B
:103B8A002D2D2D2D2D2D2D2D2D2D2D2D2D2D00694C
:103B9A006E74436F6E662000696E74466C616720AE
:103BAA0000696E74436F756E7465722000696E7475
:103BBA004172726179203A20002569200000416E25
:103BCA0074657320646520646F726D697200445570
:103BDA00524D49454E444F202E2E2E0044455350F7
:103BEA00494552544F0053616C6520706F722057DB
:103BFA0054442E0053616C6520706F722041434318
:103C0A002E004465737075657320646520626F7257
:103C1A0072617220666C616773000A555342204FC5
:103C2A004B00496E6974205254430031333A3032A2
:103C3A003A30383A30363A31383A30303A30300061
:103C4A004143435F494E5420005254435F494E5406
:103C5A002000456E20656C207365747570002573AD
:103C6A002C20253032642F253032642F25303264DF
:103C7A00202D20253032643A253032642E25303208
:103C8A00640053756E646179004D6F6E64617900EA
:103C9A0054756573646179005765646E6573646110
:103CAA007900546875727364617900467269646157
:103CBA007900536174757264617900257500253045
:103CCA0032642C20253032643A253032643A253069
:103CDA003264202D20253032643A253032640025A2
:103CEA003032642C20253032643A253032643A2549
:103CFA00303264202D20253032643A253032643A3D
:103D0A0025303264002E00393630303000343937ED
:103D1A003236300039323100313200310034313438
:103D2A00302E383231370030303035332E31373398
:103D3A003600313938006572726F723A20746865DC
:103D4A00204750532074696D6564206F7574002490
:103D5A00505352463130302C302C25752C382C31AA
:103D6A002C302A3046002447504747410024475008
:103D7A00474C4C002447504753410024475047536F
:103D8A005600244750524D4300244750565447008A
:103D9A00455048454D2E54585400245053524631EC
:103DAA0030342C25732C25732C25732C25732C2544
:103DBA00732C25732C25732C25732A303000312E51
:0C3DCA00310033003500340032000100ED
:00000001FF
