:100000000C94EB000C94DE100C940F110C94401126
:100010000C9471110C94A2110C94D3110C94041231
:100020000C9435120C9415010C9415010C941501C7
:100030000C947F070C9415010C9415010C94AD06DB
:100040000C9415010C9415010C9415010C941501D8
:100050000C9415010C9415010C9415010C94880650
:100060000C9415010C94E0120C9415010C941501DC
:100070000C9415010C9415010C9415010C941501A8
:100080000C9415010C9415010C9415010C94150198
:100090000C9421130C9415010C9415010C947E0FF3
:1000A0000C9415010C9415010C9415010C94150178
:1000B0000C9415010C9415010C9415010C94150168
:1000C0000C9415010C9415010C94150154696D657F
:1000D000205B446179206F66207765656B2C205921
:1000E000592F4D4D2F44442C2068683A6D6D3A735A
:1000F000735D3A20000946726565204D656D6F722B
:10010000793A00002124272A2D3033002225282B7C
:100110002E313400202326292C2F32050505050316
:10012000030303010101040403060606060606068E
:100130000601040501050103020202020202010296
:100140000205050404030404010304070707010270
:1001500008101020408004081020400202040810FB
:100160002040800102802040042001010204081088
:10017000200140804080010208040880041004022D
:10018000010000080900000000000000000000005D
:10019000000000000000000000000000000000005F
:1001A000000000000000000000000000000000004F
:1001B000000000006364696E6F70737578585B00AF
:1001C00087082B09F00C3F0E560E7C0EA714E51481
:1001D000EA14F514FC1411241FBECFEFD1E2DEBFE8
:1001E000CDBF18E0A0E0B2E0ECE4FCE300E00BBF20
:1001F00002C007900D92A434B107D9F711E1A4E42D
:10020000B8E001C01D92A13FB107E1F711E0C6EDD2
:10021000D1E004C02297FE010E949817C03CD1078C
:10022000C9F70E9481060C94241E0C9400000F93C1
:100230001F93182F062F61E00E94B607812F602FB1
:100240000E94D40781E01F910F910895CF92DF9211
:10025000EF92FF920F931F93DF93CF930F92CDB73F
:10026000DEB78B016A0179012DB73EB728503040C7
:100270000FB6F8943EBF0FBE2DBFEDB7FEB7319657
:10028000ADB7BEB712969C938E93119780E092E023
:100290009383828375836483CE01019697838683DB
:1002A0000E941718EDB7FEB738960FB6F894FEBF48
:1002B0000FBEEDBF02972CF48EE898E069E072E083
:1002C0000AC0D8018D919C910197099740F08EE862
:1002D00098E060E272E00E941E0E80E014C0898106
:1002E0008F3321F481E0F70180830DC0D7011C9288
:1002F0008C3621F4F601108281E005C0883669F75A
:1003000081E0D6018C930F90CF91DF911F910F91D7
:10031000FF90EF90DF90CF9008950F931F930EE81A
:1003200018E0C80167E372E00E941E0EC80165E58F
:1003300072E00E941E0EC80168E772E00E941E0E65
:10034000C80165E972E00E941E0EC80161EB72E00F
:100350000E941E0EC8016CEC72E00E941E0EC801C5
:100360006BEE72E00E941E0EC80162E073E00E9414
:100370001E0EC80161E473E00E941E0EC80163E610
:1003800073E00E941E0EC80165E873E00E941E0E15
:10039000C80161EA73E00E941E0EC8016CEB73E0B5
:1003A0000E941E0EC80164EE73E00E941E0EC8017A
:1003B00068EF73E00E941E0E1F910F9108951F9326
:1003C000182F60E00E94B607812F0E941F08BC0111
:1003D0008EE898E00E94580D1F9108950F931F9387
:1003E000DF93CF9300D000D0CDB7DEB7BE016D5FF5
:1003F0007F4FAE014F5F5F4F9E012E5F3F4F0E94C8
:100400002601882329F48EE898E065E174E023C092
:10041000EB81FC81EE0FFF1FE15DF74F0190F08152
:10042000E02D8A81882331F0CF0160E070E00E94E6
:10043000DF012CC000E010E08981882311F001E089
:1004400010E0CF01B8010E941701882341F48EE823
:1004500098E06BE274E00E94910D80E018C08EE895
:1004600098E062E474E00E94910D6B817C818EE8DB
:1004700098E00E94500D8EE898E06DE574E00E94CF
:10048000910D8EE898E0B8010E94580D81E00F9020
:100490000F900F900F90CF91DF911F910F910895C2
:1004A000EF92FF920F931F93DF93CF93CDB7DEB7F9
:1004B000CA56D0400FB6F894DEBF0FBECDBF87E45A
:1004C00098E00E949D0C8C012EE8E22E28E0F22E8E
:1004D000C701B8010E941E0E8DB79EB740970FB698
:1004E000F8949EBF0FBE8DBFEDB7FEB73196ADB786
:1004F000BEB712961C930E93119786E694E09383F1
:100500008283CE01019695838483CE0102969783E0
:100510008683CE01039691878087CE0104969387C8
:100520008287CE01059695878487CE0106969787A8
:1005300086870E9417188DB79EB706960FB6F89457
:100540009EBF0FBE8DBFEDB7FEB731968E01095F1E
:100550001F4FADB7BEB712961C930E9311978DE740
:1005600094E0938382838C81848315828D8186833A
:1005700017828E81808711860E94E6178DB79EB7FD
:100580000A960FB6F8949EBF0FBE8DBFC7016CE8E8
:1005900074E00E941E0EC701B8010E941E0EC659CB
:1005A000DF4F0FB6F894DEBF0FBECDBFCF91DF9106
:1005B0001F910F91FF90EF900895EF92FF920F938C
:1005C0001F93DF93CF93CDB7DEB7CA56D0400FB697
:1005D000F894DEBF0FBECDBF87E498E00E949D0C6B
:1005E0008C013EE8E32E38E0F32EC701B8010E94EB
:1005F0001E0E8DB79EB740970FB6F8949EBF0FBEE4
:100600008DBFEDB7FEB73196ADB7BEB712961C934E
:100610000E93119786E694E093838283CE01019630
:1006200095838483CE01029697838683CE010396B9
:1006300091878087CE01049693878287CE010596A5
:1006400095878487CE010696978786870E9417181C
:100650008DB79EB706960FB6F8949EBF0FBE8DBF9E
:10066000EDB7FEB731968E01095F1F4FADB7BEB72C
:1006700012961C930E9311978CE994E093838283D6
:100680008981848315828A81868317828B81808702
:1006900011860E94E6178DB79EB70A960FB6F8949A
:1006A0009EBF0FBE8DBFC7016BEA74E00E941E0E95
:1006B000C701B8010E941E0EC659DF4F0FB6F8944D
:1006C000DEBF0FBECDBFCF91DF911F910F91FF9085
:1006D000EF9008950F931F93CF93DF93EC018B015D
:1006E0006CEB74E00E94C417009721F081E0F801E0
:1006F00080830CC0CE016FEB74E00E94C41700979A
:1007000011F480E003C0F801108281E0DF91CF9105
:100710001F910F9108950F931F93CF93DF93EC01D7
:100720008B0163EC74E00E94C417009711F08CE019
:100730000AC0CE0167EC74E00E94C417009711F460
:1007400080E004C08DE0F801808381E0DF91CF91EB
:100750001F910F9108950F931F93DF93CF9300D0B4
:10076000CDB7DEB78C0169834A83BE016F5F7F4FCF
:100770000E948B03882329F48EE898E06DEC74E0E6
:100780000CC0C801BE016E5F7F4F0E946A038823C0
:1007900039F48EE898E064EE74E00E941E0E06C004
:1007A0008FE898E069814A810E94400E0F900F9077
:1007B000CF91DF911F910F910895CF93DF93EC01BB
:1007C0006CEF74E00E94C417009799F08EE898E0EF
:1007D00065EF70E00E94000D0E946B08AC01662777
:1007E00057FD6095762F8EE898E02AE030E00E9471
:1007F000860DCE0163E075E00E94C4170097D1F02A
:100800008EE898E06BE075E00E94910D85E498E039
:100810000E948808482F50E060E070E08EE898E081
:100820002AE030E00E94680D8EE898E06CE175E007
:100830000E941E0ECE016FE175E00E94C417009762
:10084000D1F087E498E00E94ED0C8EE898E06BE22E
:1008500075E00E94910D87E498E00E94760AAB0152
:10086000BC018EE898E00E941A0E8EE898E06AE3D8
:1008700075E00E941E0EDF91CF9108952F923F9256
:100880005F926F927F928F929F92AF92BF92CF9220
:10089000DF92EF92FF920F931F93CF93DF931C0190
:1008A0003B010E94D206562E872E982EC92EDD249B
:1008B00033C05101AC0EBD1E252D382D492D5C2DA8
:1008C000C901DA017C018D018EE898E00E94310EA9
:1008D000882389F0C615D70570F48EE898E00E9449
:1008E0002C0EF50181935F01D3940E94D2067B0107
:1008F0008C012196E9CF5E2C8F2C902EC12EDD200D
:1009000059F00E94D2066E197F09800B910B633358
:1009100071058105910538F4CD2DDD27C7FDD095F2
:10092000C615D70530F2ED2DFF27E7FDF095E20D56
:10093000F31D10828D2DDF91CF911F910F91FF90AC
:10094000EF90DF90CF90BF90AF909F908F907F906F
:100950006F905F903F902F9008952F923F924F920B
:100960005F926F927F928F929F92AF92BF92CF923F
:10097000DF92EF92FF920F931F93DF93CF93CDB748
:10098000DEB7C856D0400FB6F894DEBF0FBECDBF5D
:100990007C0147E4642E48E0742EC3010E94ED0CF4
:1009A0000EE818E0C8016DE375E00E94910DC701E3
:1009B0006AE070E00E943E04C7010E949C17A9965D
:1009C0009FAF8EAFA997C801A9966EAD7FADA997CD
:1009D0000E94580DC80161E575E00E94910DC701A4
:1009E0006AE070E00E943E04C7010E949C17A7962F
:1009F0009FAF8EAFA797C801A7966EAD7FADA797A3
:100A00000E94580DC80164E675E00E94910DC7016F
:100A10006AE070E00E943E04C7010E949C171C011E
:100A2000C801B1010E94580DC80165E775E00E9438
:100A3000910DC7016AE070E00E943E04C7010E9468
:100A40009C172C01C801B2010E94580DC80166EA2A
:100A500075E00E94910DC7016AE070E00E943E04BB
:100A6000C7010E949C174C01C801B4010E94580D97
:100A7000C80168EB75E00E94910DC7016AE070E063
:100A80000E943E04C7010E949C175C01C801B50189
:100A90000E94580DC8016CEC75E00E94910DC701D1
:100AA0006AE070E00E943E04C7010E949C176C013E
:100AB000C801B6010E94580D8DB79EB742970FB678
:100AC000F8949EBF0FBE8DBFEDB7FEB731967E0185
:100AD0000894E11CF11CADB7BEB71296FC92EE92E1
:100AE000119780EE95E093838283A9968EAD9FAD9A
:100AF000A99795838483A796AEADBFADA797B7831B
:100B0000A683318620865386428695868486B7865C
:100B1000A686D18AC08A0E94E6178DB79EB74296F4
:100B20000FB6F8949EBF0FBE8DBFC801B7010E94DB
:100B30001E0EC301B7010E940D0BC8016CEC70E0E2
:100B40000E94000DC3010E949D0CBC01C8010E94BF
:100B50001E0EC859DF4F0FB6F894DEBF0FBECDBFD3
:100B6000CF91DF911F910F91FF90EF90DF90CF9089
:100B7000BF90AF909F908F907F906F905F904F90BD
:100B80003F902F9008950F931F93DF93CF93CDB78E
:100B9000DEB7E2970FB6F894DEBF0FBECDBF8E0171
:100BA0000F5F1F4FC80162E370E00E943E04C8015E
:100BB0000E94BA178EE898E063E076E00E94910DFB
:100BC0008EE898E0B8010E941E0EC80169E276E046
:100BD0000E94C417009711F00E948D018E010F5FD3
:100BE0001F4FC8010E94DD03C80163E376E00E9445
:100BF000C417009729F0C80160E040E00E94AB03F1
:100C00008E010F5F1F4FC80167E376E00E94C41793
:100C1000009719F0C8010E94AD04CE01019665E469
:100C200076E00E94C417009779F08EE898E063E5BB
:100C300076E00E94910D87E498E00E949D0CBC0133
:100C40008EE898E00E941E0ECE0101966DE776E0D8
:100C50000E94C417009711F00E94DD02CE01019698
:100C60006BE876E00E94C417009711F00E945002D2
:100C70008E010F5F1F4FC80169E976E00E94C4171B
:100C8000009719F0C8010E94EE01E2960FB6F894A1
:100C9000DEBF0FBECDBFCF91DF911F910F910895A1
:100CA000EF92FF920F931F935EE8E52E58E0F52E2A
:100CB000C7010E94360EC7016DE976E00E941E0E44
:100CC00007E418E0C8010E94ED0CC70166EA76E06F
:100CD0000E941E0EC8016FEA76E00E940D0BC8014B
:100CE0000E949D0CBC01C7010E941E0E88E060E0BE
:100CF0000E94B6070E948D011F910F91FF90EF9007
:100D000008950E94EA060E9450060E94C305FDCF86
:100D10001F920F920FB60F9211248F939F93AF9350
:100D2000BF938091E50D9091E60DA091E70DB091F4
:100D3000E80D0196A11DB11D8093E50D9093E60D80
:100D4000A093E70DB093E80DBF91AF919F918F9164
:100D50000F900FBE0F901F9018951F920F920FB615
:100D60000F9211248F939F93AF93BF938091E90DBE
:100D70009091EA0DA091EB0DB091EC0D0196A11DA3
:100D8000B11D8093E90D9093EA0DA093EB0DB09304
:100D9000EC0DBF91AF919F918F910F900FBE0F906F
:100DA0001F9018956091E50D7091E60D8091E70D0B
:100DB0009091E80D27E0660F771F881F991F2A95ED
:100DC000D1F72EE330E040E050E00E944517CA0121
:100DD000B9010895789484B7877F84BF1092E50D98
:100DE0001092E60D1092E70D1092E80D84B5826026
:100DF00084BD84B5816084BD85B5826085BD85B5BF
:100E0000816085BDEEE6F0E0808181608083E1E86D
:100E1000F0E0808182608083808181608083E0E86F
:100E2000F0E0808181608083E1EBF0E0808184608C
:100E30008083E1E9F0E0808184608083E0EBF0E092
:100E4000808181608083E0E9F0E08081816080833F
:100E5000E4E6F0E080818E7F8083ECE7F0E0808143
:100E60008F778083808180648083EAE7F0E08081EF
:100E700084608083808182608083808180688083B9
:100E80001092C1001092C900089590914408982BC7
:100E90009093440880FF32C0809164008E7F8093DD
:100EA000640080917C008F7780937C0080917C002F
:100EB000806480937C0080917A00846080937A00C3
:100EC00080917A00826080937A0080917A008068B5
:100ED00080937A00809164008F7780936400809182
:100EE00064008B7F80936400809164008D7F809389
:100EF0006400809165008E7F8093650008951F9245
:100F00000F920FB60F920BB60F9211242F933F93AF
:100F10004F935F936F937F938F939F93AF93BF9301
:100F2000EF93FF93F89481E080933008E0E6F0E0DF
:100F300080818068808380818F7B808383E060E014
:100F40000E94D4077894FF91EF91BF91AF919F9148
:100F50008F917F916F915F914F913F912F910F9062
:100F60000BBE0F900FBE0F901F901895282F30E0EA
:100F7000C901825B9E4FFC019491255E3E4FF901B1
:100F80008491882381F0E82FF0E0ED5FFE4FE4913B
:100F9000F0E0662329F48081909589238083089569
:100FA0008081892B80830895482F50E0CA018F5794
:100FB0009E4FFC012491CA01825B9E4FFC019491DB
:100FC000455E5E4FFA0134913323C1F1222331F1A2
:100FD000233021F4809180008F7705C0243031F4D4
:100FE000809180008F7D8093800018C0213019F49B
:100FF00084B58F7704C0223021F484B58F7D84BD01
:101000000DC0263021F48091B0008F7705C02730C5
:1010100029F48091B0008F7D8093B000E32FF0E041
:10102000E55FFE4FE491F0E0662329F4808190951E
:101030008923808308958081892B80830895482F98
:1010400050E0CA018F579E4FFC012491CA01825B78
:101050009E4FFC019491455E5E4FFA01349133231B
:1010600019F420E030E035C0222331F1233021F49F
:10107000809180008F7705C0243031F4809180000A
:101080008F7D8093800018C0213019F484B58F774C
:1010900004C0223021F484B58F7D84BD0DC026307C
:1010A00021F48091B0008F7705C0273029F480911A
:1010B000B0008F7D8093B000E32FF0E0ED5EFE4F37
:1010C000E491F0E0808120E030E0892311F021E01C
:1010D00030E0C9010895DF93CF9300D0CDB7DEB7DC
:1010E0002091ED113091EE11CE01019621153105BF
:1010F00019F4815F914102C0821B930B9A8389830B
:1011000089819A810F900F90CF91DF910895089572
:10111000EF92FF920F931F9389E161E00E94B6075F
:1011200089E161E00E94D40780E00E946612AA274C
:1011300097FDA095BA2FBC01CD010E940F167B012F
:101140008C0120E030E040E054E40E9470158823D8
:1011500034F489E160E00E94D40710E046C0C80181
:10116000B70120E030EC42E254E40E94BF161816AA
:1011700034F489E160E00E94D40714E636C0C80167
:10118000B70120E030EC42E254E40E9470151816DA
:10119000BCF0C801B70120E030EC47E054E40E9405
:1011A000BF1618166CF4C801B70125E535E545E50D
:1011B0005FE30E94C31620E030E04DED53E40CC025
:1011C000C801B70120E030E040EA5EE30E94C316A8
:1011D00020E030E040E253E40E940B150E94E1154C
:1011E000162F89E160E00E94D407812F1F910F9193
:1011F000FF90EF900895FC01138A148A158A168ACD
:10120000178A108E118E128E138E148E158E168ED6
:10121000178E10A211A212A280E090E0A0E0B0E030
:1012200083A394A3A5A3B6A30895262F862F6AE0CF
:101230000E942617492F30E0C901841B91096AE0FA
:1012400070E00E943217E4E0660F771FEA95E1F73D
:10125000842F862B08950895CF93DF93EC018D8919
:10126000843009F45FC0853048F4823059F183300E
:1012700008F040C0813009F0D2C00AC0863009F4BD
:1012800081C0863008F466C0873009F0C8C092C0BB
:101290008DB79EB742970FB6F8949EBF0FBE8DBF15
:1012A000EDB7FEB73196A896ADB7BEB71296DC93F0
:1012B000CE931197A89784EC96E09383828388EE6F
:1012C00096E08FC0ADB7BEB752970FB6F894BEBFC9
:1012D0000FBEADBFEDB7FEB73196A8961296DC9360
:1012E000CE931197A89784EC96E0938382838FEE38
:1012F00096E077C0ADB7BEB752970FB6F894BEBFB1
:101300000FBEADBFEDB7FEB73196A8961296DC932F
:10131000CE931197A89784EC96E09383828386EF0F
:1013200096E05FC0ADB7BEB752970FB6F894BEBF98
:101330000FBEADBFEDB7FEB73196A8961296DC93FF
:10134000CE931197A89784EC96E0938382838EEFD7
:1013500096E047C0ADB7BEB752970FB6F894BEBF80
:101360000FBEADBFEDB7FEB73196A8961296DC93CF
:10137000CE931197A89784EC96E09383828388E0BC
:1013800097E02FC0ADB7BEB752970FB6F894BEBF67
:101390000FBEADBFEDB7FEB73196A8961296DC939F
:1013A000CE931197A89784EC96E09383828381E192
:1013B00097E017C0ADB7BEB752970FB6F894BEBF4F
:1013C0000FBEADBFEDB7FEB73196A8961296DC936F
:1013D000CE931197A89784EC96E09383828388E15B
:1013E00097E0958384838B89868317828C89808795
:1013F0001186898D828713868E89848715868F89C9
:1014000086871786888D808B118A0E94E6178DB794
:101410009EB742960FB6F8949EBF0FBE8DBF9E0139
:10142000285D3F4FC901DF91CF910895DF92EF9280
:10143000FF920F931F938C01D62EA9E1EA2EAAE00A
:10144000FA2EC70168E670E00E945B0EC7016D2DA1
:101450000E947D0E0D0D111DC701F80160810E94D3
:101460007D0EC7010E94A40E1F910F91FF90EF9077
:10147000DF900895809156088C7F8093560887E40A
:1014800098E06FE00E94160A08951F93CF93DF93B0
:10149000EC01162F89E19AE068E670E00E945B0E8D
:1014A00089E19AE0612F0E947D0E89E19AE00E9415
:1014B000A40E89E19AE068E670E041E050E00E9405
:1014C000C50E89E19AE00E94650E8823D1F389E177
:1014D0009AE00E946B0EC10FD11D888389E19AE0CA
:1014E0000E94A40EDF91CF911F910895CF93DF93B7
:1014F000EC0161E10E94450ACE0162E10E94450AC9
:101500002989422F552747FD5095440F551F440FF9
:10151000551F8A8990E036E0969587953A95E1F7D0
:10152000480F591F30E0220F232F221F330B213089
:10153000310561F466277727641B750B882777FDD3
:101540008095982F0E940F16905807C0BA018827DF
:1015500077FD8095982F0E940F166BA37CA38DA317
:101560009EA320E030E040E85EE30E94C3166BA338
:101570007CA38DA39EA32BA13CA14DA15EA1B9018B
:10158000CA01DF91CF9108950F931F93CF93DF93FB
:10159000EC0189E19AE068E670E00E945B0E89E167
:1015A0009AE060E070E00E94A10ECE01688D0E947A
:1015B00015098883CE016F890E9415098983CE01A0
:1015C0006E890E9415098A838D898B83CE01698D6E
:1015D0000E9415098C83CE016C890E9415098D83A8
:1015E000CE016B890E9415098E8300E010E0FE0198
:1015F000E00FF11F89E19AE060810E947D0E0F5F8C
:101600001F4F0730110599F789E19AE00E94A40E57
:10161000DF91CF911F910F910895DC01FB01218192
:101620002053808180533AE0839FC0011124280F0A
:1016300053962C9353972481205383818053839F07
:10164000C0011124280F54962C93549727812053BE
:1016500086818053839FC0011124280F59962C93B3
:1016600059972285205381858053839FC00111247F
:10167000280F55962C9355972585205384858053A4
:10168000839FC0011124280F56962C9356972089CA
:10169000205387858053839FC0011124280F5796BC
:1016A0002C9357972389205382898053839FC001AD
:1016B0001124280F58962C935897CD010E94C40AE4
:1016C0000895CF92DF92EF92FF921F93CF93DF9313
:1016D0007C01162F89E19AE068E670E00E945B0EBB
:1016E00089E19AE060E070E00E94A10E89E19AE051
:1016F0000E94A40E89E19AE068E670E042E150E0C1
:101700000E94C50EC0E0D0E0C12EDD241AE009C160
:1017100089E19AE00E94650E882309F402C189E1FB
:101720009AE00E946B0E282FF701EC0FFD1F8083BB
:10173000C630D10509F482C0C730D105B8F4C23033
:10174000D10509F44EC0C330D10538F4209769F1B2
:10175000C130D10509F0E4C036C0C430D10509F468
:1017600051C0C530D10508F05BC049C0CA30D105B1
:1017700009F49BC0CB30D10558F4C830D10509F429
:1017800078C090E02F70C930D10508F081C064C0E6
:10179000CC30D10509F4A7C0CC30D10508F494C0F1
:1017A000CD30D10509F0BCC0ADC090E054E09595B6
:1017B00087955A95E1F7819FC00111242F70280F5A
:1017C000F701208FADC090E044E0959587954A954C
:1017D000E1F7819FC00111242F70280FF701278B9B
:1017E0009FC090E034E0959587953A95E1F7819F09
:1017F000C00111242F70280FF701268B91C0F7012B
:10180000858B8EC090E0B4E095958795BA95E1F709
:10181000819FC00111242F70280FF701218F80C0F4
:1018200090E0A4E095958795AA95E1F7819FC00186
:1018300011242F70280FF701248B72C090E0F4E080
:1018400095958795FA95E1F7819FC00111242F7036
:10185000280FF701238B64C0E4E095958795EA95FE
:10186000E1F78770819FC0011124280FF701228FB3
:1018700057C090E074E0959587957A95E1F7877069
:10188000819FC00111242F70280FF701238F48C0BA
:1018900064E0959587956A95E1F78370819FC00113
:1018A0001124280FF701248F3BC090E054E0959558
:1018B00087955A95E1F78370819FC00111242F709D
:1018C000280FF701258F2CC090E044E0959587956F
:1018D0004A95E1F78770819FC00111242F70280F6E
:1018E000F701268F1DC090E034E0959587953A95D5
:1018F000E1F78370819FC00111242F70280FF70139
:10190000278F0EC090E0B4E095958795BA95E1F7E2
:101910008370819FC00111242F70280FF70120A32D
:101920002196CC16DD0608F0F3CEDF91CF911F9102
:10193000FF90EF90DF90CF9008950F931F938C014D
:1019400066E00E94610BC8010E942C091F910F9153
:1019500008950F931F93CF93DF93EC01042F6FA390
:1019600080E361E00E94B6071FA1113019F0103129
:1019700099F40DC080E361E00E94D407013019F4AE
:1019800082E08A8B09C0002339F41A8B05C080E3FA
:1019900060E00E94D4071A8ADF91CF911F910F91C6
:1019A0000895CF93DF93EC0161E040E00E94A90C21
:1019B0008091190A882321F489E19AE00E94C80ED7
:1019C000CE010E943A0ACE010E94FB08CE016DE0D2
:1019D0000E94610BDF91CF9108950E94D10C089570
:1019E00010928E0808950F93FC01CB01BA012AE0F2
:1019F00030E040E050E000810E9489130F9108958B
:101A00000F931F93CF93DF938C01EB01FE0121967F
:101A10008491882329F0F80160810E946213F6CF37
:101A200060E070E080E090E0DF91CF911F910F9136
:101A300008950F931F938C018DE0F80160810E943F
:101A400062138AE0F80160810E9462131F910F9176
:101A50000895EF92FF920F931F93CF93DF93EC01C2
:101A60007A018B0177FF0CC08DE268810E946213BE
:101A700010950095F094E094E11CF11C011D111DDE
:101A8000C801B7012AE030E040E050E008810E9440
:101A90008913DF91CF911F910F91FF90EF900895DF
:101AA000AB01662757FD6095762F0E94290D08959A
:101AB0000F931F938C01AB01662757FD6095762F1E
:101AC0000E94290DC8010E94190D1F910F910895C0
:101AD0000F931F93FC01DA018B012115310529F4C5
:101AE000842F60810E9462130EC02A30310519F4E0
:101AF0000E94290D08C030E040E050E0BD01C8015F
:101B000000810E9489131F910F9108950F931F93D5
:101B10008C010E94680DC8010E94190D1F910F9140
:101B20000895FC01CB0160810E94731308959F9278
:101B3000AF92BF92CF92DF92EF92FF920F931F93DB
:101B4000CF93DF93EC017A018B01922ECB01BA0186
:101B500020E030E040E050E00E947015882344F41B
:101B60008DE268810E94621317FB109517F910959A
:101B700020E030E040E05FE3AA240BC0CA01B901D5
:101B800020E030E040E251E40E9474159B01AC017A
:101B9000A394A91498F3C801B7010E940C155B0126
:101BA0006C010E94E1157B018C01CE01B801A701F7
:101BB0000E94F30C992029F08BE697E068810E943F
:101BC0007313C801B7010E940D169B01AC01C60139
:101BD000B5010E940B1520C020E030E040E251E446
:101BE0000E94C3167B018C010E94DC155B016C0115
:101BF000CC24B7FCC094DC2CCE01B601A5010E9418
:101C0000290DC601B5010E940F169B01AC01C80148
:101C1000B7010E940B159A949920F1F6DF91CF91AC
:101C20001F910F91FF90EF90DF90CF90BF90AF90FA
:101C30009F9008952AE00E94970D08950F931F9397
:101C40008C01CB01F80160810E947313C8010E94CE
:101C5000190D1F910F910895FC0180810E94A5121A
:101C60000895FC0180810E9481120895FC0160E0CA
:101C700076E980E090E040810E942B140895089559
:101C80000F931F93162F042F862F61E00E94B60733
:101C9000013019F4812F61E004C0002321F4812F69
:101CA00060E00E94D4071F910F9108951092CF0910
:101CB0001092D109089581E08093180A6093F50984
:101CC0001092160A1092170A08958091F4099091C3
:101CD000F309891B08959091F3098091F4099817ED
:101CE00010F080E00895E92FF0E0ED52F64F80818A
:101CF0009F5F9093F30908950895DF93CF930F9218
:101D0000CDB7DEB769838091180A882389F0809166
:101D1000170A803290F48091160AE82FF0E0EA501A
:101D2000F64F60838F5F8093160A8093170A05C071
:101D3000CE01019661E00E94630F0F90CF91DF9179
:101D400008950E947D0E08958091F50966EF79E06F
:101D50004091170A21E00E94350F1092160A109246
:101D6000170A1092180A08951F93142F413208F091
:101D700010E2862F63ED79E0412F0E94090F109247
:101D8000F3091093F4091F9108950E94B40E089569
:101D90000F931F938C011092F3091092F309109284
:101DA000F4091092160A1092160A1092170A0E944D
:101DB000DF0E81E0F80180831F910F91089510924A
:101DC0001A0A589A599A8091B9008E7F8093B90067
:101DD0008091B9008D7F8093B90080E28093B80034
:101DE00085E48093BC00E0E2FAE011928AE0E034FE
:101DF000F807D9F7E2E4FAE011928AE0E236F80750
:101E0000D9F7E4E6FAE011928AE0E438F807D9F766
:101E10000895982F413210F081E0089580911A0AB8
:101E20008823E1F781E080931A0A1092400A4093D8
:101E3000410A990F916090931B0A85EE8093BC0034
:101E400080911A0A8130E1F320E030E00AC0FB0102
:101E5000E20FF31FD901A05EB54F8C9180832F5FF5
:101E60003F4F2417A0F380E008951F93582F122F9F
:101E7000413210F081E025C080911A0A8823E1F7F1
:101E800082E080931A0A1092400A4093410AA0E22D
:101E9000BAE0FB0102C081918D938E2F861B8417BF
:101EA000D0F3852F90E0880F991F80931B0A85EE51
:101EB0008093BC00112321F080911A0A8230E1F353
:101EC00080E01F910895482F613210F081E008955D
:101ED00080911A0A843011F082E008956093630AB9
:101EE000A2E4BAE0842F9C01F90102C081918D9394
:101EF0008E2F841B8617D0F380E008951F920F92D7
:101F00000FB60F920BB60F9211242F933F934F935E
:101F10005F936F937F938F939F93AF93BF93EF9351
:101F2000FF938091B90090E0887F90708036910592
:101F300009F4CAC081369105CCF58832910509F4BF
:101F40007BC089329105B4F48031910509F46FC0EA
:101F5000813191053CF4009709F414C1089709F008
:101F60001AC165C08831910509F466C0809709F0EF
:101F700012C17DC08034910509F48DC08134910572
:101F800044F48033910509F472C0C89709F003C185
:101F9000F5C08035910509F472C08835910509F4C2
:101FA0007FC08834910509F0F6C086C08839910554
:101FB00009F4E0C089399105ECF48837910509F4FA
:101FC00083C0893791054CF48836910509F47CC0AB
:101FD0008037910509F0DFC077C08838910509F492
:101FE000C9C08039910509F475C08038910509F0A0
:101FF000D2C070C0803B910509F493C0813B91052C
:102000004CF4803A910509F477C0883A910509F0BB
:10201000C2C087C0803C910509F4B0C0883C9105DE
:1020200009F4ACC0883B910509F0B5C08FC0809120
:102030001B0A8093BB009CC09091400A8091410A8A
:10204000981768F49091400AE92FF0E0E05EF54FB0
:1020500080818093BB009F5F9093400A89C085ED8B
:102060008093BC008091BC0084FDFCCF92C085EDC4
:102070008093BC008091BC0084FDFCCF8AC080911D
:10208000400A9091BB00E82FF0E0E05EF54F9083AE
:102090008F5F8093400A9091400A8091410A66C008
:1020A0008091400A9091BB00E82FF0E0E05EF54F90
:1020B00090838F5F8093400A85ED8093BC00809170
:1020C000BC0084FDFCCF65C083E080931A0A1092A7
:1020D000840A4EC08091840A803208F04BC08091FF
:1020E000840A9091BB00E82FF0E0EC59F54F908303
:1020F0008F5F8093840A3CC08091840A803230F4E0
:10210000E091840AF0E0EC59F54F10826091840A66
:10211000E0911E0AF0911F0A84E69AE070E00995AA
:102120002DC084E080931A0A1092620A1092630A0A
:10213000E0911C0AF0911D0A09958091630A882399
:1021400029F481E08093630A1092420A9091620A16
:10215000E92FF0E0EE5BF54F80818093BB009F5F3D
:102160009093620A9091620A8091630A981710F422
:1021700085EC01C085E88093BC000DC085EC8093A0
:10218000BC0007C085ED8093BC008091BC0084FD3D
:10219000FCCF10921A0AFF91EF91BF91AF919F91DE
:1021A0008F917F916F915F914F913F912F910F9000
:1021B0000BBE0F900FBE0F901F9018951F920F929D
:1021C0000FB60F920BB60F9211242F933F934F939C
:1021D0005F936F937F938F939F93AF93BF93EF938F
:1021E000FF938091850A9091860A892B29F0E091CE
:1021F000850AF091860A0995FF91EF91BF91AF9101
:102200009F918F917F916F915F914F913F912F910E
:102210000F900BBE0F900FBE0F901F9018951F923E
:102220000F920FB60F920BB60F9211242F933F937C
:102230004F935F936F937F938F939F93AF93BF93CE
:10224000EF93FF938091870A9091880A892B29F058
:10225000E091870AF091880A0995FF91EF91BF916B
:10226000AF919F918F917F916F915F914F913F912E
:102270002F910F900BBE0F900FBE0F901F901895CF
:102280001F920F920FB60F920BB60F9211242F933D
:102290003F934F935F936F937F938F939F93AF93EE
:1022A000BF93EF93FF938091890A90918A0A892BBB
:1022B00029F0E091890AF0918A0A0995FF91EF913E
:1022C000BF91AF919F918F917F916F915F914F914E
:1022D0003F912F910F900BBE0F900FBE0F901F904C
:1022E00018951F920F920FB60F920BB60F921124F2
:1022F0002F933F934F935F936F937F938F939F930E
:10230000AF93BF93EF93FF9380918B0A90918C0AC8
:10231000892B29F0E0918B0AF0918C0A0995FF91A5
:10232000EF91BF91AF919F918F917F916F915F914D
:102330004F913F912F910F900BBE0F900FBE0F90BA
:102340001F9018951F920F920FB60F920BB60F9217
:1023500011242F933F934F935F936F937F938F93AA
:102360009F93AF93BF93EF93FF9380918D0A9091CA
:102370008E0A892B29F0E0918D0AF0918E0A099539
:10238000FF91EF91BF91AF919F918F917F916F914D
:102390005F914F913F912F910F900BBE0F900FBE09
:1023A0000F901F9018951F920F920FB60F920BB6B9
:1023B0000F9211242F933F934F935F936F937F93CB
:1023C0008F939F93AF93BF93EF93FF9380918F0A67
:1023D0009091900A892B29F0E0918F0AF091900A50
:1023E0000995FF91EF91BF91AF919F918F917F914F
:1023F0006F915F914F913F912F910F900BBE0F9076
:102400000FBE0F901F9018951F920F920FB60F924C
:102410000BB60F9211242F933F934F935F936F93BB
:102420007F938F939F93AF93BF93EF93FF9380918D
:10243000910A9091920A892B29F0E091910AF091EA
:10244000920A0995FF91EF91BF91AF919F918F9162
:102450007F916F915F914F913F912F910F900BBEA4
:102460000F900FBE0F901F9018951F920F920FB6EE
:102470000F920BB60F9211242F933F934F935F93BC
:102480006F937F938F939F93AF93BF93EF93FF933C
:102490008091930A9091940A892B29F0E091930AF4
:1024A000F091940A0995FF91EF91BF91AF919F919F
:1024B0008F917F916F915F914F913F912F910F90ED
:1024C0000BBE0F900FBE0F901F90189590917C003F
:1024D0008F70907F892B80937C0080917A0080643C
:1024E00080937A0080917A0086FDFCCF209178005D
:1024F00040917900942F80E030E0282B392BC901DE
:102500000895882389F48091950A9091960A8050C5
:102510009E4F2091970A3091980A821B930B60E09E
:1025200072E00E94321708958091990A90919A0A58
:1025300080509E4F20919B0A30919C0A821B930BE6
:1025400060E072E00E94321708958823D1F4409130
:10255000970A5091980A8091950A9091960A84174B
:10256000950751F1FA01E351F04F2081CA0101961C
:1025700060E072E00E9432179093980A8093970A65
:1025800019C040919B0A50919C0A8091990A9091A0
:102590009A0A8417950781F0FA01E351F24F2081DE
:1025A000CA01019660E072E00E94321790939C0A83
:1025B00080939B0A30E002C02FEF3FEFC9010895DE
:1025C0001F920F920FB60F920BB60F9211242F93FA
:1025D0003F934F935F936F937F938F939F93AF93AB
:1025E000BF93EF93FF934091C600E091950AF0915D
:1025F000960ACF01019660E072E00E9432179C01BA
:102600008091970A9091980A2817390739F0E35179
:10261000F04F40833093960A2093950AFF91EF91F3
:10262000BF91AF919F918F917F916F915F914F91EA
:102630003F912F910F900BBE0F900FBE0F901F90E8
:1026400018951F920F920FB60F920BB60F9211248E
:102650002F933F934F935F936F937F938F939F93AA
:10266000AF93BF93EF93FF934091CE00E091990A0F
:10267000F0919A0ACF01019660E072E00E94321751
:102680009C0180919B0A90919C0A2817390739F088
:10269000E351F24F408330939A0A2093990AFF91B5
:1026A000EF91BF91AF919F918F917F916F915F91CA
:1026B0004F913F912F910F900BBE0F900FBE0F9037
:1026C0001F901895982F662339F48091C00085FFDC
:1026D000FCCF9093C60008958091C80085FFFCCF81
:1026E0009093CE000895FC0110C03196662339F412
:1026F0008091C00085FFFCCF9093C60006C08091FA
:10270000C80085FFFCCF9093CE009081992369F794
:1027100008952F923F924F925F926F927F928F9285
:102720009F92AF92BF92CF92DF92EF92FF920F9360
:102730001F93DF93CF93CDB7DEB7A1970FB6F89471
:10274000DEBF0FBECDBF6B017C0129013A0109A399
:10275000611571058105910591F4002341F4809183
:10276000C00085FFFCCF80E38093C6005BC08091F2
:10277000C80085FFFCCF80E38093CE0053C088243F
:10278000992454011E010894211C311C8101080D5B
:10279000191DC701B601A30192010E944517F80156
:1027A00060830894811C911CA11CB11CC701B60157
:1027B000A30192010E944517C901DA016C017D0154
:1027C000C114D104E104F10409F79101280D391D68
:1027D000BE016F5F7F4FD501C4010197A109B10907
:1027E000AC01481959091BC0FA01E20FF31FE0813F
:1027F000EA3010F4E05D01C0E95CF9A1FF2339F48F
:102800008091C00085FFFCCFE093C60006C0809198
:10281000C80085FFFCCFE093CE0021503040621706
:10282000730711F7A1960FB6F894DEBF0FBECDBFA8
:10283000CF91DF911F910F91FF90EF90DF90CF909C
:10284000BF90AF909F908F907F906F905F904F90D0
:102850003F902F900895EF92FF920F931F937B016B
:102860008C014423C1F588E00E944507C801B701E7
:1028700022E030E040E050E00E946717205E3E45D5
:10288000484F5F4FCA01B901A80197010E9467171D
:10289000C901DA010197A109B109292F3A2F4B2F5C
:1028A000552747FD5A950196A11DB11D2093C500DE
:1028B00081508093C4008091C10080618093C100E9
:1028C0008091C10088608093C1008091C1008068C0
:1028D0008093C10037C080E10E944507C801B7015D
:1028E00022E030E040E050E00E946717205E3E4565
:1028F000484F5F4FCA01B901A80197010E946717AD
:10290000C901DA010197A109B109292F3A2F4B2FEB
:10291000552747FD5A950196A11DB11D2093CD0065
:1029200081508093CC008091C90080618093C90060
:102930008091C90088608093C9008091C900806837
:102940008093C9001F910F91FF90EF900895089513
:10295000FC0180EC92E1A0E0B0E080839183A2834F
:10296000B38381E08483E755FF4F22E02083E95A57
:10297000F0401782168280E890E091878087128667
:1029800023878DE697E095AB84AB83E797E097AB21
:1029900086AB8AE797E091AF80AF8EE797E093AF81
:1029A00082AF81E897E095AF84AF83E897E097AF77
:1029B00086AFE05CFF4F8DE897E08193919388E9C3
:1029C00097E081939193108208958DE99AE00E9497
:1029D000A81408951092580D1092590D10925C0D84
:1029E00010925E0D1092610D089510927B0D109261
:1029F000950D1092AF0D089582E090E0A0E0B0E058
:102A00008093C70D9093C80DA093C90DB093CA0DC4
:102A10001092DE0D08955058BB27AA270ED075C11D
:102A200066D130F06BD120F031F49F3F11F41EF4E9
:102A30005BC10EF4E095E7FB51C1E92F77D180F33C
:102A4000BA17620773078407950718F071F49EF5AB
:102A50008FC10EF4E0950B2EBA2FA02D0B01B901FA
:102A600090010C01CA01A0011124FF27591B99F004
:102A7000593F50F4503E68F11A16F040A22F232F10
:102A8000342F4427585FF3CF469537952795A79560
:102A9000F0405395C9F77EF41F16BA0B620B730B07
:102AA000840BBAF09150A1F0FF0FBB1F661F771F78
:102AB000881FC2F70EC0BA0F621F731F841F48F42D
:102AC000879577956795B795F7959E3F08F0B3CFB3
:102AD0009395880F08F09927EE0F9795879508959D
:102AE000D9D008F481E008950CD00FC107D140F08F
:102AF000FED030F021F45F3F19F0F0C0511139C120
:102B0000F3C014D198F39923C9F35523B1F3951B5E
:102B1000550BBB27AA2762177307840738F09F5FFE
:102B20005F4F220F331F441FAA1FA9F333D00E2E6D
:102B30003AF0E0E830D091505040E695001CCAF7DA
:102B400029D0FE2F27D0660F771F881FBB1F26179F
:102B500037074807AB07B0E809F0BB0B802DBF0172
:102B6000FF2793585F4F2AF09E3F510568F0B6C08B
:102B700000C15F3FECF3983EDCF38695779567954F
:102B8000B795F7959F5FC9F7880F911D9695879523
:102B900097F90895E1E0660F771F881FBB1F621742
:102BA00073078407BA0720F0621B730B840BBA0B00
:102BB000EE1F88F7E095089504D06894B111D9C04C
:102BC0000895BCD088F09F5790F0B92F9927B7513E
:102BD000A0F0D1F0660F771F881F991F1AF0BA95E1
:102BE000C9F712C0B13081F0C3D0B1E00895C0C0C0
:102BF000672F782F8827B85F39F0B93FCCF38695D7
:102C000077956795B395D9F73EF490958095709533
:102C100061957F4F8F4F9F4F0895E89409C097FBB0
:102C20003EF490958095709561957F4F8F4F9F4FA3
:102C30009923A9F0F92F96E9BB279395F6958795E7
:102C400077956795B795F111F8CFFAF4BB0F11F4AA
:102C500060FF1BC06F5F7F4F8F4F9F4F16C0882351
:102C600011F096E911C0772321F09EE8872F762F87
:102C700005C0662371F096E8862F70E060E02AF0C8
:102C80009A95660F771F881FDAF7880F96958795B4
:102C900097F90895990F0008550FAA0BE0E8FEEF89
:102CA00016161706E807F907C0F012161306E40710
:102CB000F50798F0621B730B840B950B39F40A2609
:102CC00061F0232B242B252B21F408950A2609F4E7
:102CD000A140A6958FEF811D811D089597F99F67EB
:102CE00080E870E060E008959FEF80EC0895002494
:102CF0000A941616170618060906089500240A9461
:102D000012161306140605060895092E0394000CE6
:102D100011F4882352F0BB0F40F4BF2B11F460FF75
:102D200004C06F5F7F4F8F4F9F4F089557FD90589E
:102D3000440F551F59F05F3F71F04795880F97FB7F
:102D4000991F61F09F3F79F0879508951216130639
:102D50001406551FF2CF4695F1DF08C01616170668
:102D60001806991FF1CF869571056105089408959D
:102D7000E894BB2766277727CB0197F908958ADF68
:102D800008F48FEF08950BD0C0CFB1DF28F0B6DF85
:102D900018F0952309F0A2CFA7CF1124EACFC6DF00
:102DA000A0F3959FD1F3950F50E0551F629FF0015E
:102DB000729FBB27F00DB11D639FAA27F00DB11DB7
:102DC000AA1F649F6627B00DA11D661F829F222740
:102DD000B00DA11D621F739FB00DA11D621F839FC7
:102DE000A00D611D221F749F3327A00D611D231F9D
:102DF000849F600D211D822F762F6A2F11249F57EB
:102E000050408AF0E1F088234AF0EE0FFF1FBB1F0D
:102E1000661F771F881F91505040A9F79E3F5105AC
:102E200070F05CCFA6CF5F3FECF3983EDCF3869565
:102E300077956795B795F795E7959F5FC1F7FE2B57
:102E4000880F911D9695879597F90895991B79E0BC
:102E500004C0991F961708F0961B881F7A95C9F72A
:102E60008095089597FB092E07260AD077FD04D098
:102E700049D006D000201AF4709561957F4F0895CF
:102E8000F6F7909581959F4F0895A1E21A2EAA1BFF
:102E9000BB1BFD010DC0AA1FBB1FEE1FFF1FA2170A
:102EA000B307E407F50720F0A21BB30BE40BF50B07
:102EB000661F771F881F991F1A9469F76095709590
:102EC000809590959B01AC01BD01CF01089597FBC2
:102ED000092E05260ED057FD04D0D7DF0AD0001CDE
:102EE00038F450954095309521953F4F4F4F5F4FA7
:102EF0000895F6F790958095709561957F4F8F4F67
:102F00009F4F0895AA1BBB1B51E107C0AA1FBB1FFF
:102F1000A617B70710F0A61BB70B881F991F5A9565
:102F2000A9F780959095BC01CD010895EE0FFF1F84
:102F30000590F491E02D0994FC0188279927E894E5
:102F400021912032E9F3293010F02E30C8F32B32D2
:102F500041F02D3239F4689404C00E94DE17820FCC
:102F6000911D219120532A30C0F31EF49095819534
:102F70009F4F0895DC016C9161546A3108F06052F2
:102F80006F596D93C1F70895FB0151915523A9F035
:102F9000BF01DC014D9145174111E1F759F4CD0115
:102FA0000190002049F04D9140154111C9F3FB01FA
:102FB0004111EFCF81E090E0019708957AE0979F6B
:102FC000902D879F802D910D112408950F931F93AD
:102FD000DF93CF93CDB7DEB72E970FB6F894DEBF51
:102FE0000FBECDBF0D891E8986E08C831A830983AD
:102FF0008FEF9FE79E838D839E01275E3F4FCE011B
:1030000001966F89788DA9010E943A182F81388521
:10301000020F131FF80110822E960FB6F894DEBF30
:103020000FBECDBFCF91DF911F910F910895DF9318
:10303000CF93CDB7DEB72E970FB6F894DEBF0FBE95
:10304000CDBF85E08C838B899C899A8389839E017F
:10305000295E3F4FCE0101966D897E89A9010E94AC
:10306000EF1B2E960FB6F894DEBF0FBECDBFCF91EB
:10307000DF9108952F923F924F925F926F927F92CD
:103080008F929F92AF92BF92CF92DF92EF92FF9278
:103090000F931F93DF93CF93CDB7DEB72B970FB668
:1030A000F894DEBF0FBECDBF3C012B015A01FC01DD
:1030B00017821682838181FD03C06FEF7FEFC6C147
:1030C0009AE0892E1E010894211C311CF3012381F2
:1030D000F20123FD859123FF81912F01882309F4BB
:1030E000B2C1853239F423FD859123FF81912F01EF
:1030F000853229F490E0B3010E947D1DE7CF982F1F
:10310000FF24EE249924FFE1FF15D0F09B3269F0F3
:103110009C3228F4903259F0933291F40EC09D32D3
:1031200049F0903369F441E024C052E0F52A84E08C
:10313000F82A28C098E0F92A25C0E0E1FE2A22C03A
:10314000F7FC29C0892F80538A3070F4F6FE05C041
:10315000989C902C1124980E15C0E89CE02C11240A
:10316000E80EF0E2FF2A0EC09E3229F4F6FC6BC195
:1031700040E4F42A07C09C3619F450E8F52A02C04E
:10318000983649F4F20123FD959123FF91912F0187
:10319000992309F0B8CF892F8554833018F08052D5
:1031A000833038F444E050E0A40EB51E5FE3598349
:1031B0000FC0933631F0933779F0933509F056C04C
:1031C00020C0F5018081898342E050E0A40EB51E45
:1031D000610101E010E012C0F501C080D180F6FC71
:1031E00003C06FEF7FEF02C0692D70E042E050E056
:1031F000A40EB51EC6010E94301D8C015FE7F522AA
:1032000014C0F501C080D180F6FC03C06FEF7FEFE2
:1032100002C0692D70E042E050E0A40EB51EC60168
:103220000E94251D8C0150E8F52AF3FE07C01AC044
:1032300080E290E0B3010E947D1DEA948E2D90E023
:1032400008171907A8F30EC0F601F7FC8591F7FEE1
:1032500081916F0190E0B3010E947D1DE110EA941D
:10326000015010400115110579F7EAC0943611F0AC
:10327000993669F5F7FE08C0F50120813181428158
:10328000538184E090E00AC0F501808191819C0126
:10329000442737FD4095542F82E090E0A80EB91ED8
:1032A0009FE6F92257FF09C050954095309521952A
:1032B0003F4F4F4F5F4FE0E8FE2ACA01B901A1011D
:1032C0002AE030E00E94C31DD82ED21840C09537A6
:1032D00029F41F2D1F7E2AE030E01DC01F2D197F0D
:1032E0009F3661F0903720F4983509F0ACC00FC0DC
:1032F000903739F0983709F0A6C004C028E030E0D4
:103300000AC0106114FD146020E130E004C014FD17
:10331000166020E132E017FF08C0F501608171817D
:103320008281938144E050E008C0F5018081918161
:10333000BC0180E090E042E050E0A40EB51EA10187
:103340000E94C31DD82ED2188FE7F82EF122F6FE68
:103350000BC05EEFF522D91438F4F4FE07C0F2FC7E
:1033600005C08FEEF82202C01D2D01C0192DF4FEFC
:103370000DC0FE01ED0DF11D8081803319F499EE31
:10338000F92208C01F5FF2FE05C003C08F2D8678AA
:1033900009F01F5F0F2DF3FC14C0F0FE0FC01E15C7
:1033A00010F09D2C0BC09D2C9E0C911A1E2D06C05A
:1033B00080E290E0B3010E947D1D1F5F1E15C0F3E7
:1033C00004C01E1510F4E11A01C0EE2404FF0FC062
:1033D00080E390E0B3010E947D1D02FF1DC001FD4E
:1033E00003C088E790E00EC088E590E00BC0802F16
:1033F000867891F001FF02C08BE201C080E2F7FC09
:103400008DE290E0B3010E947D1D06C080E390E054
:10341000B3010E947D1D9A94D914C0F3DA94F1018E
:10342000ED0DF11D808190E0B3010E947D1DDD2036
:10343000A9F706C080E290E0B3010E947D1DEA94E6
:10344000EE20C1F743CEF30166817781CB012B9645
:103450000FB6F894DEBF0FBECDBFCF91DF911F91A5
:103460000F91FF90EF90DF90CF90BF90AF909F9023
:103470008F907F906F905F904F903F902F90089526
:10348000FC0120FD08C023FD05C022FF02C073839C
:103490006283518340830895EF92FF920F931F93AD
:1034A00044FF02C033E011C046FF02C034E00DC04B
:1034B000DB01FC01AA0FBB1FEE1FFF1F1094D1F709
:1034C0006A0F7B1F8E1F9F1F31E0660F771F881FBB
:1034D000991F3150D1F77B018C01E20EF11C011DC7
:1034E000111DA8019701B701CA011F910F91FF900B
:1034F000EF9008950F931F93CF93DF938C01C80132
:103500000E943B1DEC0197FD08C00E94121D892BF3
:10351000B1F7CE01B8010E94A91DCE01DF91CF9174
:103520001F910F910895AF92BF92CF92DF92EF92C9
:10353000FF920F931F93CF93DF93EC01C62E5A0196
:10354000122F0E943B1DAC018B3219F08D3251F4C9
:103550001068CA9409F46DC0CE010E943B1DAC01F5
:1035600097FD67C06DEFD62ED1228D2D807301F5AA
:103570004033F1F4CA9409F447C0CE010E943B1DC8
:10358000AC0197FD41C082E0D82A483711F0483598
:1035900059F480E4D82ACA94B9F1CE010E943B1DA7
:1035A000AC0199232CF430C0D6FC02C080E1D82AAB
:1035B000EE24FF248701242F2053283088F0D4FCE8
:1035C00009C02A3068F0D6FE05C02F7D822F8151B8
:1035D000863028F0CA01BE010E94A91D12C02750E2
:1035E000C801B7014D2D0E944C1A7B018C0182E06D
:1035F000D82ACA9461F0CE010E943B1DAC0197FF0E
:10360000DACFD1FC04C015C0EE24FF248701D7FE19
:1036100008C010950095F094E094E11CF11C011D88
:10362000111DC501B801A7012D2D0E94401A81E08E
:1036300001C080E0DF91CF911F910F91FF90EF903B
:10364000DF90CF90BF90AF9008956F927F928F924E
:103650009F92AF92BF92CF92DF92EF92FF920F9321
:103660001F93DF93CF93CDB7DEB7A0970FB6F89433
:10367000DEBF0FBECDBF6C01A62E8A017901FE010F
:10368000319680E2DF011D928A95E9F770E030E023
:1036900060E040E050E04F01A1E0B0E0F60183813E
:1036A000F70183FD259183FF21917F01222309F4F6
:1036B0007EC02E3519F44115510569F1872F90E030
:1036C0008417950744F42D3551F12D3221F433231D
:1036D00029F431E021C0332309F4622F322F832FE4
:1036E000869586958695F401E80FF11D832F8770E6
:1036F0003D0102C0660C771C8A95E2F720812629DD
:103700002083361711F430E007C0361710F43F5FFE
:10371000E6CF3150E4CF71E04F5F5F4FBFCF33232F
:1037200019F08E8180628E83772359F0FE013196E5
:103730009E012F5D3F4F808180958193E217F307B3
:10374000D1F7BB24B3944E010894811C911CC6018F
:103750000E943B1DAC0197FD22C0869586958695FB
:10376000F401E80FF11D808190E09A01277030701C
:1037700002C0959587952A95E2F780FD05C0CA019C
:10378000B6010E94A91D0BC00115110519F0D80141
:103790004D938D01AA94BB24AA20C9F602C0BB2078
:1037A00031F40115110529F0F801108202C0EE2450
:1037B000FF24C701A0960FB6F894DEBF0FBECDBFA1
:1037C000CF91DF911F910F91FF90EF90DF90CF90FD
:1037D000BF90AF909F908F907F906F9008956F9261
:1037E0007F928F929F92AF92BF92CF92DF92EF9291
:1037F000FF920F931F93CF93DF935C016B013A010C
:10380000FC01178216828824EAC0812F90E00E9472
:10381000121D892B21F0C5010E947A1AE0C01532D1
:1038200049F4F601F3FC6591F3FE61916F01653295
:1038300069F415E2C5010E943B1D97FDDCC0181715
:1038400009F4CDC0B5010E94A91DDAC06A3219F091
:10385000162F00E006C0F3FC1591F3FE11916F01E5
:1038600001E099240FC00260692D70E080E090E0D3
:1038700040E20E944C1A962EF601F3FC1591F3FEDD
:1038800011916F01212F20532A3068F301FD03C0ED
:1038900099249A9403C0992009F4B2C0183621F0F3
:1038A0001C3699F4F6010BC0F601F3FC6591F3FEAA
:1038B0006191683619F06F01162F07C00860046027
:1038C000F3FC1591F3FE11916F01112309F498C0D7
:1038D00084EB91E0612F70E00E941A1D892B09F49E
:1038E0008FC0802F00FF03C0EE24FF2407C0F30128
:1038F000E080F18022E030E0620E731E1E3651F44B
:10390000F5014681578160E070E0C701202F0E94D9
:10391000401A65C0133691F481FD02C09924939436
:10392000C5010E943B1D97FD66C0E114F10419F02A
:10393000F70181937F019A9499F74FC01B3559F491
:10394000C501692DA70196010E94251B6C010097F6
:1039500009F043C03DC0C5010E947A1A97FD4BC0D3
:103960001F3659F1103728F4143629F1193639F574
:1039700027C0133719F0153711F51DC0C5010E9476
:103980003B1DEC0197FD11C00E94121D892B29F0EF
:10399000CE01B5010E94A91D08C0E114F10419F07F
:1039A000F701C1937F019A9449F7E114F104A9F05A
:1039B000F701108212C0006203C0006101C0006400
:1039C000C501692DA701202F0E94931A882329F48D
:1039D000F5018381807379F413C000FF8394F501AE
:1039E000F380F601F3FC1591F3FE11916F011123A1
:1039F00009F00BCF05C0882019F42FEF3FEF02C06C
:103A0000282D30E0C901DF91CF911F910F91FF90D8
:103A1000EF90DF90CF90BF90AF909F908F907F906E
:103A20006F90089591110DC1803219F08950855021
:103A3000D0F70895FC010590061621F00020D9F773
:103A4000C00108953197CF010895FC0105906150A0
:103A500070400110D8F7809590958E0F9F1F0895A4
:103A6000FC016150704001900110D8F7809590954D
:103A70008E0F9F1F0895CF93DF93EC014B8140FF82
:103A80001AC046FF0AC04F7B4B838E819F810196EF
:103A90009F838E838A81282F2BC042FF13C0E88129
:103AA000F9818081282F332727FD30952115310595
:103AB00029F440624B832FEF3FEF1BC03196F9830F
:103AC000E88311C0EA85FB85CE0109959C0197FF2B
:103AD0000AC09B812F5F3F4F11F080E201C080E15F
:103AE000892B8B83E8CF8E819F8101969F838E8364
:103AF00030E0C901DF91CF9108950F931F93CF93C9
:103B0000DF938C01EB018B8181FF1BC082FF0DC015
:103B10002E813F818C819D812817390764F4E881CB
:103B2000F9810193F983E88306C0E885F985802F40
:103B30000995892B31F48E819F8101969F838E8315
:103B400002C00FEF1FEFC801DF91CF911F910F91BE
:103B500008959C01FB01838180FF11C086FD0FC089
:103B60009FEF2F3F390759F0228380648F7D838335
:103B70008681978101979783868330E002C02FEF7B
:103B80003FEFC9010895FA01AA27283051F12031E9
:103B900081F1E8946F936E7F6E5F7F4F8F4F9F4FE1
:103BA000AF4FB1E03ED0B4E03CD0670F781F891F23
:103BB0009A1FA11D680F791F8A1F911DA11D6A0FF1
:103BC000711D811D911DA11D20D009F468943F91A4
:103BD0002AE0269F11243019305D3193DEF6CF01A3
:103BE0000895462F4770405D4193B3E00FD0C9F769
:103BF000F6CF462F4F70405D4A3318F0495D31FDD6
:103C00004052419302D0A9F7EACFB4E0A695979528
:103C1000879577956795BA95C9F7009761057105FE
:103C200008959B01AC010A2E069457954795379548
:103C30002795BA95C9F7620F731F841F951FA01DA2
:0C3C40000895992788270895F894FFCF75
:103C4C00252A732569202563004E4F204C454520BD
:103C5C004249454E20454E2050494E202E2E2E00D6
:103C6C0050494E2046554552412044452052414E24
:103C7C00474F202E2E2E000A4C6973746120646508
:103C8C0020636F6D616E646F7320706F7369626C0B
:103C9C0065733A0A000920312920436F6E73756CE5
:103CAC007461722065737461646F2064656C205755
:103CBC006173704D6F74650009094D656D6F7269A4
:103CCC006120646973706F6E69706C653A206D6504
:103CDC006D6F72790009094E6976656C20646520F8
:103CEC00626174657269613A20626174746572799B
:103CFC0000090954656D70657261747572613A20C2
:103D0C0074656D7065726174757265000A09203294
:103D1C00292047657374696F6E206465204C656457
:103D2C00732070726F70696F733A0009096C656467
:103D3C00207265642F677265656E206F6E2F6F66DB
:103D4C0066000A092033292047657374696F6E2059
:103D5C0064652046656368612F486F72613A20285C
:103D6C00446179206F66207765656B2C2059592F3B
:103D7C004D4D2F44442C2068683A6D6D3A7373296D
:103D8C00000909205365742046656368612F486FEC
:103D9C007261203A207365745F646174655F746945
:103DAC006D65000909204765742046656368612FBD
:103DBC00486F7261203A206765745F646174655F57
:103DCC0074696D6500090920476574204665636850
:103DDC00613A206765745F6F6E6C795F64617465BE
:103DEC000009092047657420486F72613A206765A5
:103DFC00745F6F6E6C795F74696D65000A092034AD
:103E0C002920436F6E66696775726163696F6E20F6
:103E1C0064652070696E65732064652073616C69DC
:103E2C0064612000090970696E204E554D5F504940
:103E3C004E204C2F482F3F000A4573706572616EFF
:103E4C00646F20616C67756E20636F6D616E646F5B
:103E5C002E2E2E0A0050726F626C656D6173206598
:103E6C006E20656C2070617273650050726F626CAD
:103E7C00656D617320656E20757064617465506941
:103E8C006E00486563686F212120456C206E697651
:103E9C00656C2064656C2070696E3A200020657337
:103EAC00202E2E2E2000252A7325642F25642F25E5
:103EBC0064202D2025643A25642E2564002530329B
:103ECC00753A253032753A2530327500486F72617B
:103EDC003A2868682F6D6D2F737329002530327561
:103EEC002F253032752F2530327500466563686199
:103EFC003A2859592F4D4D2F444429006F6E006FAD
:103F0C0066660072656400677265656E00556E7258
:103F1C0065636F676E697A6564204C4544206E61F9
:103F2C006D652100556E7265636F676E697A6564A5
:103F3C00204C454420737461746521006D656D6F70
:103F4C0072790062617474657279000942617474EB
:103F5C00657279204C6576656C3A200020250074DA
:103F6C00656D7065726174757265000954656D706C
:103F7C00657261747572653A2000204300496E7356
:103F8C00657274617220616E6E6F205B79795D3A37
:103F9C0000496E73657274204D6F6E7468205B6D92
:103FAC006D5D3A00496E7365727420646179205BB3
:103FBC0064645D3A00496E73657274206461795F64
:103FCC007765656B205B64645D2028536174757242
:103FDC00646179203D20372C2053756E6461792003
:103FEC003D2031293A00496E7365727420686F72F6
:103FFC0061205B48485D3A00496E73657274206DB0
:10400C00696E757465205B4D4D5D3A00496E736544
:10401C007274207365636F6E64205B53535D3A005A
:10402C00253032753A253032753A253032753A25BD
:10403C003032753A253032753A253032753A2530A2
:10404C003275005365207265636962696F206C611B
:10405C00207369677569656E746520696E73747217
:10406C00756363696F6E3A2000646973705F6D6588
:10407C006E75006C6564007365745F646174655F74
:10408C0074696D65006765745F646174655F7469FC
:10409C006D650054696D65205B446179206F662005
:1040AC007765656B2C2059592F4D4D2F44442C208E
:1040BC0068683A6D6D3A73735D3A200A00676574EF
:1040CC005F6F6E6C795F64617465006765745F6FB8
:1040DC006E6C795F74696D650070696E000A2055AD
:1040EC005342204F4B000A2046656368613A003109
:1040FC00363A30373A31363A30323A31373A35305F
:10410C003A30300025732C20253032642F25303284
:10411C00642F25303264202D20253032643A25302E
:10412C0032642E253032640053756E646179004D13
:10413C006F6E6461790054756573646179005765BD
:10414C00646E657364617900546875727364617927
:10415C0000467269646179005361747572646179A7
:10416C0000257500253032642C20253032643A2528
:10417C003032643A25303264202D20253032643AB6
:10418C002530326400253032642C20253032643ADC
:10419C00253032643A25303264202D2025303264AB
:1041AC003A253032643A25303264002E00393630EC
:1041BC003030003439373236300039323100313258
:1041CC00003100343134302E383231370030303059
:1041DC0035332E3137333600313938006572726F12
:1041EC00723A20746865204750532074696D656479
:1041FC00206F75740024505352463130302C302CC3
:10420C0025752C382C312C302A3046002447504749
:10421C00474100244750474C4C00244750475341DA
:10422C000024475047535600244750524D43002416
:10423C00475056544700455048454D2E545854004D
:10424C0024505352463130342C25732C25732C2595
:10425C00732C25732C25732C25732C25732C25730B
:10426C002A303000312E310033003500340032005A
:10427C0001020008000A00090007000600040005FE
:04428C00000B000023
:00000001FF
